{
  "_format": "hh-sol-artifact-1",
  "contractName": "BaseToken_A",
  "sourceName": "contracts/BaseToken/BaseToken_A.sol",
  "abi": [
    {
      "inputs": [
        {
          "internalType": "string",
          "name": "_name",
          "type": "string"
        },
        {
          "internalType": "string",
          "name": "_symbol",
          "type": "string"
        },
        {
          "internalType": "uint8",
          "name": "_decimals",
          "type": "uint8"
        },
        {
          "internalType": "uint256",
          "name": "_cap",
          "type": "uint256"
        },
        {
          "internalType": "uint256",
          "name": "_initial",
          "type": "uint256"
        }
      ],
      "stateMutability": "nonpayable",
      "type": "constructor"
    },
    {
      "anonymous": false,
      "inputs": [
        {
          "indexed": true,
          "internalType": "address",
          "name": "owner",
          "type": "address"
        },
        {
          "indexed": true,
          "internalType": "address",
          "name": "spender",
          "type": "address"
        },
        {
          "indexed": false,
          "internalType": "uint256",
          "name": "value",
          "type": "uint256"
        }
      ],
      "name": "Approval",
      "type": "event"
    },
    {
      "anonymous": false,
      "inputs": [],
      "name": "MintFinished",
      "type": "event"
    },
    {
      "anonymous": false,
      "inputs": [
        {
          "indexed": true,
          "internalType": "address",
          "name": "previousOwner",
          "type": "address"
        },
        {
          "indexed": true,
          "internalType": "address",
          "name": "newOwner",
          "type": "address"
        }
      ],
      "name": "OwnershipTransferred",
      "type": "event"
    },
    {
      "anonymous": false,
      "inputs": [
        {
          "indexed": true,
          "internalType": "address",
          "name": "from",
          "type": "address"
        },
        {
          "indexed": true,
          "internalType": "address",
          "name": "to",
          "type": "address"
        },
        {
          "indexed": false,
          "internalType": "uint256",
          "name": "value",
          "type": "uint256"
        }
      ],
      "name": "Transfer",
      "type": "event"
    },
    {
      "inputs": [
        {
          "internalType": "address[]",
          "name": "_recipients",
          "type": "address[]"
        },
        {
          "internalType": "uint256[]",
          "name": "_values",
          "type": "uint256[]"
        }
      ],
      "name": "Airdrop",
      "outputs": [],
      "stateMutability": "nonpayable",
      "type": "function"
    },
    {
      "inputs": [
        {
          "internalType": "address",
          "name": "owner",
          "type": "address"
        },
        {
          "internalType": "address",
          "name": "spender",
          "type": "address"
        }
      ],
      "name": "allowance",
      "outputs": [
        {
          "internalType": "uint256",
          "name": "",
          "type": "uint256"
        }
      ],
      "stateMutability": "view",
      "type": "function"
    },
    {
      "inputs": [
        {
          "internalType": "address",
          "name": "spender",
          "type": "address"
        },
        {
          "internalType": "uint256",
          "name": "amount",
          "type": "uint256"
        }
      ],
      "name": "approve",
      "outputs": [
        {
          "internalType": "bool",
          "name": "",
          "type": "bool"
        }
      ],
      "stateMutability": "nonpayable",
      "type": "function"
    },
    {
      "inputs": [
        {
          "internalType": "address",
          "name": "account",
          "type": "address"
        }
      ],
      "name": "balanceOf",
      "outputs": [
        {
          "internalType": "uint256",
          "name": "",
          "type": "uint256"
        }
      ],
      "stateMutability": "view",
      "type": "function"
    },
    {
      "inputs": [
        {
          "internalType": "uint256",
          "name": "amount",
          "type": "uint256"
        }
      ],
      "name": "burn",
      "outputs": [],
      "stateMutability": "nonpayable",
      "type": "function"
    },
    {
      "inputs": [
        {
          "internalType": "address",
          "name": "account",
          "type": "address"
        },
        {
          "internalType": "uint256",
          "name": "amount",
          "type": "uint256"
        }
      ],
      "name": "burnFrom",
      "outputs": [],
      "stateMutability": "nonpayable",
      "type": "function"
    },
    {
      "inputs": [],
      "name": "cap",
      "outputs": [
        {
          "internalType": "uint256",
          "name": "",
          "type": "uint256"
        }
      ],
      "stateMutability": "view",
      "type": "function"
    },
    {
      "inputs": [],
      "name": "decimals",
      "outputs": [
        {
          "internalType": "uint8",
          "name": "",
          "type": "uint8"
        }
      ],
      "stateMutability": "view",
      "type": "function"
    },
    {
      "inputs": [
        {
          "internalType": "address",
          "name": "spender",
          "type": "address"
        },
        {
          "internalType": "uint256",
          "name": "subtractedValue",
          "type": "uint256"
        }
      ],
      "name": "decreaseAllowance",
      "outputs": [
        {
          "internalType": "bool",
          "name": "",
          "type": "bool"
        }
      ],
      "stateMutability": "nonpayable",
      "type": "function"
    },
    {
      "inputs": [],
      "name": "finishMinting",
      "outputs": [],
      "stateMutability": "nonpayable",
      "type": "function"
    },
    {
      "inputs": [],
      "name": "getTokenName",
      "outputs": [
        {
          "internalType": "string",
          "name": "",
          "type": "string"
        }
      ],
      "stateMutability": "view",
      "type": "function"
    },
    {
      "inputs": [
        {
          "internalType": "address",
          "name": "spender",
          "type": "address"
        },
        {
          "internalType": "uint256",
          "name": "addedValue",
          "type": "uint256"
        }
      ],
      "name": "increaseAllowance",
      "outputs": [
        {
          "internalType": "bool",
          "name": "",
          "type": "bool"
        }
      ],
      "stateMutability": "nonpayable",
      "type": "function"
    },
    {
      "inputs": [
        {
          "internalType": "address",
          "name": "account",
          "type": "address"
        },
        {
          "internalType": "uint256",
          "name": "amount",
          "type": "uint256"
        }
      ],
      "name": "mint",
      "outputs": [],
      "stateMutability": "nonpayable",
      "type": "function"
    },
    {
      "inputs": [],
      "name": "mintingFinished",
      "outputs": [
        {
          "internalType": "bool",
          "name": "",
          "type": "bool"
        }
      ],
      "stateMutability": "view",
      "type": "function"
    },
    {
      "inputs": [],
      "name": "name",
      "outputs": [
        {
          "internalType": "string",
          "name": "",
          "type": "string"
        }
      ],
      "stateMutability": "view",
      "type": "function"
    },
    {
      "inputs": [],
      "name": "owner",
      "outputs": [
        {
          "internalType": "address",
          "name": "",
          "type": "address"
        }
      ],
      "stateMutability": "view",
      "type": "function"
    },
    {
      "inputs": [
        {
          "internalType": "address",
          "name": "tokenAddress",
          "type": "address"
        },
        {
          "internalType": "uint256",
          "name": "tokenAmount",
          "type": "uint256"
        }
      ],
      "name": "recoverToken",
      "outputs": [],
      "stateMutability": "nonpayable",
      "type": "function"
    },
    {
      "inputs": [],
      "name": "renounceOwnership",
      "outputs": [],
      "stateMutability": "nonpayable",
      "type": "function"
    },
    {
      "inputs": [],
      "name": "symbol",
      "outputs": [
        {
          "internalType": "string",
          "name": "",
          "type": "string"
        }
      ],
      "stateMutability": "view",
      "type": "function"
    },
    {
      "inputs": [],
      "name": "tokenName",
      "outputs": [
        {
          "internalType": "string",
          "name": "",
          "type": "string"
        }
      ],
      "stateMutability": "view",
      "type": "function"
    },
    {
      "inputs": [],
      "name": "totalSupply",
      "outputs": [
        {
          "internalType": "uint256",
          "name": "",
          "type": "uint256"
        }
      ],
      "stateMutability": "view",
      "type": "function"
    },
    {
      "inputs": [
        {
          "internalType": "address",
          "name": "recipient",
          "type": "address"
        },
        {
          "internalType": "uint256",
          "name": "amount",
          "type": "uint256"
        }
      ],
      "name": "transfer",
      "outputs": [
        {
          "internalType": "bool",
          "name": "",
          "type": "bool"
        }
      ],
      "stateMutability": "nonpayable",
      "type": "function"
    },
    {
      "inputs": [
        {
          "internalType": "address",
          "name": "sender",
          "type": "address"
        },
        {
          "internalType": "address",
          "name": "recipient",
          "type": "address"
        },
        {
          "internalType": "uint256",
          "name": "amount",
          "type": "uint256"
        }
      ],
      "name": "transferFrom",
      "outputs": [
        {
          "internalType": "bool",
          "name": "",
          "type": "bool"
        }
      ],
      "stateMutability": "nonpayable",
      "type": "function"
    },
    {
      "inputs": [
        {
          "internalType": "address",
          "name": "newOwner",
          "type": "address"
        }
      ],
      "name": "transferOwnership",
      "outputs": [],
      "stateMutability": "nonpayable",
      "type": "function"
    }
  ],
  "bytecode": "0x60c06040526005805460ff191690553480156200001b57600080fd5b5060405162001c0c38038062001c0c8339810160408190526200003e91620003d7565b6040518060400160405280600b81526020016a42617365546f6b656e5f4160a81b8152508284878781600390805190602001906200007e92919062000286565b5080516200009490600490602084019062000286565b50505060f81b7fff000000000000000000000000000000000000000000000000000000000000001660805280620000e85760405162461bcd60e51b8152600401620000df9062000469565b60405180910390fd5b60a0526000620000f7620001b2565b60058054610100600160a81b0319166101006001600160a01b03841690810291909117909155604051919250906000907f8be0079c531659141344cd1fd0a4f28419497f9722a3daafe3b4186f6b6457e0908290a35080516200016290600690602084019062000286565b505081811115620001875760405162461bcd60e51b8152600401620000df90620004a0565b620001a762000195620001b2565b82620001b660201b62000a1e1760201c565b50505050506200058f565b3390565b6001600160a01b038216620001df5760405162461bcd60e51b8152600401620000df90620004d7565b620001ed6000838362000281565b806002600082825462000201919062000517565b90915550506001600160a01b038216600090815260208190526040812080548392906200023090849062000517565b90915550506040516001600160a01b038316906000907fddf252ad1be2c89b69c2b068fc378daa952ba7f163c4a11628f55a4df523b3ef90620002759085906200050e565b60405180910390a35050565b505050565b82805462000294906200053c565b90600052602060002090601f016020900481019282620002b8576000855562000303565b82601f10620002d357805160ff191683800117855562000303565b8280016001018555821562000303579182015b8281111562000303578251825591602001919060010190620002e6565b506200031192915062000315565b5090565b5b8082111562000311576000815560010162000316565b600082601f8301126200033d578081fd5b81516001600160401b03808211156200035a576200035a62000579565b6040516020601f8401601f191682018101838111838210171562000382576200038262000579565b604052838252858401810187101562000399578485fd5b8492505b83831015620003bc57858301810151828401820152918201916200039d565b83831115620003cd57848185840101525b5095945050505050565b600080600080600060a08688031215620003ef578081fd5b85516001600160401b038082111562000406578283fd5b6200041489838a016200032c565b965060208801519150808211156200042a578283fd5b5062000439888289016200032c565b945050604086015160ff8116811462000450578182fd5b6060870151608090970151959894975095949392505050565b60208082526015908201527f45524332304361707065643a2063617020697320300000000000000000000000604082015260600190565b60208082526019908201527f45524332304361707065643a2063617020657863656564656400000000000000604082015260600190565b6020808252601f908201527f45524332303a206d696e7420746f20746865207a65726f206164647265737300604082015260600190565b90815260200190565b600082198211156200053757634e487b7160e01b81526011600452602481fd5b500190565b6002810460018216806200055157607f821691505b602082108114156200057357634e487b7160e01b600052602260045260246000fd5b50919050565b634e487b7160e01b600052604160045260246000fd5b60805160f81c60a051611654620005b8600039600061046701526000610cc001526116546000f3fe608060405234801561001057600080fd5b50600436106101585760003560e01c8063715018a6116100c3578063a457c2d71161007c578063a457c2d714610286578063a9059cbb14610299578063b29a8140146102ac578063c558ae6b146102bf578063dd62ed3e146102d2578063f2fde38b146102e557610158565b8063715018a61461023e57806379cc6790146102465780637d64bcb414610259578063862b092b146102615780638da5cb5b1461026957806395d89b411461027e57610158565b8063355274ea11610115578063355274ea146101e057806339509351146101e857806340c10f19146101fb57806342966c68146102105780636c02a9311461022357806370a082311461022b57610158565b806305d2035b1461015d57806306fdde031461017b578063095ea7b31461019057806318160ddd146101a357806323b872dd146101b8578063313ce567146101cb575b600080fd5b6101656102f8565b60405161017291906110b8565b60405180910390f35b610183610301565b60405161017291906110c3565b61016561019e366004610fc1565b610393565b6101ab6103b0565b604051610172919061156c565b6101656101c6366004610f86565b6103b6565b6101d3610456565b6040516101729190611575565b6101ab610465565b6101656101f6366004610fc1565b610489565b61020e610209366004610fc1565b6104d8565b005b61020e61021e366004611073565b610509565b61018361051d565b6101ab610239366004610f33565b6105ab565b61020e6105ca565b61020e610254366004610fc1565b610659565b61020e6106ae565b6101836106db565b6102716106ea565b604051610172919061108b565b6101836106fe565b610165610294366004610fc1565b61070d565b6101656102a7366004610fc1565b610788565b61020e6102ba366004610fc1565b61079c565b61020e6102cd366004610fea565b610862565b6101ab6102e0366004610f54565b610927565b61020e6102f3366004610f33565b610952565b60055460ff1690565b606060038054610310906115b2565b80601f016020809104026020016040519081016040528092919081815260200182805461033c906115b2565b80156103895780601f1061035e57610100808354040283529160200191610389565b820191906000526020600020905b81548152906001019060200180831161036c57829003601f168201915b5050505050905090565b60006103a76103a0610ade565b8484610ae2565b50600192915050565b60025490565b60006103c3848484610b96565b6001600160a01b0384166000908152600160205260408120816103e4610ade565b6001600160a01b03166001600160a01b03168152602001908152602001600020549050828110156104305760405162461bcd60e51b8152600401610427906112ea565b60405180910390fd5b61044b8561043c610ade565b610446868561159b565b610ae2565b506001949350505050565b6000610460610cbe565b905090565b7f000000000000000000000000000000000000000000000000000000000000000090565b60006103a7610496610ade565b8484600160006104a4610ade565b6001600160a01b03908116825260208083019390935260409182016000908120918b16815292529020546104469190611583565b60055460ff16156104fb5760405162461bcd60e51b8152600401610427906114ae565b6105058282610ce2565b5050565b61051a610514610ade565b82610d2b565b50565b6006805461052a906115b2565b80601f0160208091040260200160405190810160405280929190818152602001828054610556906115b2565b80156105a35780601f10610578576101008083540402835291602001916105a3565b820191906000526020600020905b81548152906001019060200180831161058657829003601f168201915b505050505081565b6001600160a01b0381166000908152602081905260409020545b919050565b6105d2610ade565b6001600160a01b03166105e36106ea565b6001600160a01b0316146106095760405162461bcd60e51b8152600401610427906112a5565b60055460405160009161010090046001600160a01b0316907f8be0079c531659141344cd1fd0a4f28419497f9722a3daafe3b4186f6b6457e0908390a360058054610100600160a81b0319169055565b6000610667836102e0610ade565b9050818110156106895760405162461bcd60e51b815260040161042790611332565b61069f83610695610ade565b610446858561159b565b6106a98383610d2b565b505050565b60055460ff16156106d15760405162461bcd60e51b8152600401610427906114ae565b6106d9610e11565b565b606060068054610310906115b2565b60055461010090046001600160a01b031690565b606060048054610310906115b2565b6000806001600061071c610ade565b6001600160a01b03908116825260208083019390935260409182016000908120918816815292529020549050828110156107685760405162461bcd60e51b8152600401610427906114f0565b61077e610773610ade565b85610446868561159b565b5060019392505050565b60006103a7610795610ade565b8484610b96565b6107a4610ade565b6001600160a01b03166107b56106ea565b6001600160a01b0316146107db5760405162461bcd60e51b8152600401610427906112a5565b816001600160a01b031663a9059cbb6107f26106ea565b836040518363ffffffff1660e01b815260040161081092919061109f565b602060405180830381600087803b15801561082a57600080fd5b505af115801561083e573d6000803e3d6000fd5b505050506040513d601f19601f820116820180604052508101906106a99190611053565b8261087f5760405162461bcd60e51b815260040161042790611376565b82811461089e5760405162461bcd60e51b815260040161042790611223565b60005b838110156109205761090d8585838181106108cc57634e487b7160e01b600052603260045260246000fd5b90506020020160208101906108e19190610f33565b84848481811061090157634e487b7160e01b600052603260045260246000fd5b90506020020135610788565b5080610918816115ed565b9150506108a1565b5050505050565b6001600160a01b03918216600090815260016020908152604080832093909416825291909152205490565b61095a610ade565b6001600160a01b031661096b6106ea565b6001600160a01b0316146109915760405162461bcd60e51b8152600401610427906112a5565b6001600160a01b0381166109b75760405162461bcd60e51b81526004016104279061125a565b6005546040516001600160a01b0380841692610100900416907f8be0079c531659141344cd1fd0a4f28419497f9722a3daafe3b4186f6b6457e090600090a3600580546001600160a01b0390921661010002610100600160a81b0319909216919091179055565b6001600160a01b038216610a445760405162461bcd60e51b815260040161042790611535565b610a50600083836106a9565b8060026000828254610a629190611583565b90915550506001600160a01b03821660009081526020819052604081208054839290610a8f908490611583565b90915550506040516001600160a01b038316906000907fddf252ad1be2c89b69c2b068fc378daa952ba7f163c4a11628f55a4df523b3ef90610ad290859061156c565b60405180910390a35050565b3390565b6001600160a01b038316610b085760405162461bcd60e51b81526004016104279061146a565b6001600160a01b038216610b2e5760405162461bcd60e51b81526004016104279061119b565b6001600160a01b0380841660008181526001602090815260408083209487168084529490915290819020849055517f8c5be1e5ebec7d5bd14f71427d1e84f3dd0314c0f7b2291e5b200ac8c7c3b92590610b8990859061156c565b60405180910390a3505050565b6001600160a01b038316610bbc5760405162461bcd60e51b8152600401610427906113ee565b6001600160a01b038216610be25760405162461bcd60e51b815260040161042790611116565b610bed8383836106a9565b6001600160a01b03831660009081526020819052604090205481811015610c265760405162461bcd60e51b8152600401610427906111dd565b610c30828261159b565b6001600160a01b038086166000908152602081905260408082209390935590851681529081208054849290610c66908490611583565b92505081905550826001600160a01b0316846001600160a01b03167fddf252ad1be2c89b69c2b068fc378daa952ba7f163c4a11628f55a4df523b3ef84604051610cb0919061156c565b60405180910390a350505050565b7f000000000000000000000000000000000000000000000000000000000000000090565b610cea610ade565b6001600160a01b0316610cfb6106ea565b6001600160a01b031614610d215760405162461bcd60e51b8152600401610427906112a5565b6105058282610e58565b6001600160a01b038216610d515760405162461bcd60e51b8152600401610427906113ad565b610d5d826000836106a9565b6001600160a01b03821660009081526020819052604090205481811015610d965760405162461bcd60e51b815260040161042790611159565b610da0828261159b565b6001600160a01b03841660009081526020819052604081209190915560028054849290610dce90849061159b565b90915550506040516000906001600160a01b038516907fddf252ad1be2c89b69c2b068fc378daa952ba7f163c4a11628f55a4df523b3ef90610b8990869061156c565b610e19610ade565b6001600160a01b0316610e2a6106ea565b6001600160a01b031614610e505760405162461bcd60e51b8152600401610427906112a5565b6106d9610e9b565b610e60610465565b81610e696103b0565b610e739190611583565b1115610e915760405162461bcd60e51b815260040161042790611433565b6105058282610a1e565b6005805460ff191660011790556040517fae5184fba832cb2b1f702aca6117b8d265eaf03ad33eb133f19dde0f5920fa0890600090a1565b80356001600160a01b03811681146105c557600080fd5b60008083601f840112610efb578182fd5b50813567ffffffffffffffff811115610f12578182fd5b6020830191508360208083028501011115610f2c57600080fd5b9250929050565b600060208284031215610f44578081fd5b610f4d82610ed3565b9392505050565b60008060408385031215610f66578081fd5b610f6f83610ed3565b9150610f7d60208401610ed3565b90509250929050565b600080600060608486031215610f9a578081fd5b610fa384610ed3565b9250610fb160208501610ed3565b9150604084013590509250925092565b60008060408385031215610fd3578182fd5b610fdc83610ed3565b946020939093013593505050565b60008060008060408587031215610fff578081fd5b843567ffffffffffffffff80821115611016578283fd5b61102288838901610eea565b9096509450602087013591508082111561103a578283fd5b5061104787828801610eea565b95989497509550505050565b600060208284031215611064578081fd5b81518015158114610f4d578182fd5b600060208284031215611084578081fd5b5035919050565b6001600160a01b0391909116815260200190565b6001600160a01b03929092168252602082015260400190565b901515815260200190565b6000602080835283518082850152825b818110156110ef578581018301518582016040015282016110d3565b818111156111005783604083870101525b50601f01601f1916929092016040019392505050565b60208082526023908201527f45524332303a207472616e7366657220746f20746865207a65726f206164647260408201526265737360e81b606082015260800190565b60208082526022908201527f45524332303a206275726e20616d6f756e7420657863656564732062616c616e604082015261636560f01b606082015260800190565b60208082526022908201527f45524332303a20617070726f766520746f20746865207a65726f206164647265604082015261737360f01b606082015260800190565b60208082526026908201527f45524332303a207472616e7366657220616d6f756e7420657863656564732062604082015265616c616e636560d01b606082015260800190565b6020808252601c908201527f726563697069656e74732e6c656e20213d2076616c7565732e6c656e00000000604082015260600190565b6020808252602b908201527f45524332304f776e61626c653a206e6577206f776e657220697320746865207a60408201526a65726f206164647265737360a81b606082015260800190565b60208082526025908201527f45524332304f776e61626c653a2063616c6c6572206973206e6f74207468652060408201526437bbb732b960d91b606082015260800190565b60208082526028908201527f45524332303a207472616e7366657220616d6f756e74206578636565647320616040820152676c6c6f77616e636560c01b606082015260800190565b60208082526024908201527f45524332303a206275726e20616d6f756e74206578636565647320616c6c6f77604082015263616e636560e01b606082015260800190565b6020808252601b908201527f6e656564206174206c65617374206f6e6520726563697069656e740000000000604082015260600190565b60208082526021908201527f45524332303a206275726e2066726f6d20746865207a65726f206164647265736040820152607360f81b606082015260800190565b60208082526025908201527f45524332303a207472616e736665722066726f6d20746865207a65726f206164604082015264647265737360d81b606082015260800190565b60208082526019908201527f45524332304361707065643a2063617020657863656564656400000000000000604082015260600190565b60208082526024908201527f45524332303a20617070726f76652066726f6d20746865207a65726f206164646040820152637265737360e01b606082015260800190565b60208082526022908201527f45524332304d696e7461626c653a206d696e74696e672069732066696e697368604082015261195960f21b606082015260800190565b60208082526025908201527f45524332303a2064656372656173656420616c6c6f77616e63652062656c6f77604082015264207a65726f60d81b606082015260800190565b6020808252601f908201527f45524332303a206d696e7420746f20746865207a65726f206164647265737300604082015260600190565b90815260200190565b60ff91909116815260200190565b6000821982111561159657611596611608565b500190565b6000828210156115ad576115ad611608565b500390565b6002810460018216806115c657607f821691505b602082108114156115e757634e487b7160e01b600052602260045260246000fd5b50919050565b600060001982141561160157611601611608565b5060010190565b634e487b7160e01b600052601160045260246000fdfea26469706673582212207d72b00f4b913449305cd7cc2cc16f1c750439ce46fe1b521d4003338a23b0a164736f6c63430008000033",
  "linkReferences": {},
  "deployedLinkReferences": {}
}