{
  "_format": "hh-sol-artifact-1",
  "contractName": "BaseToken",
  "sourceName": "contracts/BaseToken/BaseToken.sol",
  "abi": [
    {
      "inputs": [
        {
          "internalType": "string",
          "name": "_name",
          "type": "string"
        },
        {
          "internalType": "string",
          "name": "_symbol",
          "type": "string"
        },
        {
          "internalType": "uint8",
          "name": "_decimals",
          "type": "uint8"
        },
        {
          "internalType": "uint256",
          "name": "_cap",
          "type": "uint256"
        },
        {
          "internalType": "uint256",
          "name": "_initial",
          "type": "uint256"
        }
      ],
      "stateMutability": "nonpayable",
      "type": "constructor"
    },
    {
      "anonymous": false,
      "inputs": [
        {
          "indexed": true,
          "internalType": "address",
          "name": "owner",
          "type": "address"
        },
        {
          "indexed": true,
          "internalType": "address",
          "name": "spender",
          "type": "address"
        },
        {
          "indexed": false,
          "internalType": "uint256",
          "name": "value",
          "type": "uint256"
        }
      ],
      "name": "Approval",
      "type": "event"
    },
    {
      "anonymous": false,
      "inputs": [],
      "name": "MintFinished",
      "type": "event"
    },
    {
      "anonymous": false,
      "inputs": [
        {
          "indexed": true,
          "internalType": "address",
          "name": "previousOwner",
          "type": "address"
        },
        {
          "indexed": true,
          "internalType": "address",
          "name": "newOwner",
          "type": "address"
        }
      ],
      "name": "OwnershipTransferred",
      "type": "event"
    },
    {
      "anonymous": false,
      "inputs": [
        {
          "indexed": true,
          "internalType": "address",
          "name": "from",
          "type": "address"
        },
        {
          "indexed": true,
          "internalType": "address",
          "name": "to",
          "type": "address"
        },
        {
          "indexed": false,
          "internalType": "uint256",
          "name": "value",
          "type": "uint256"
        }
      ],
      "name": "Transfer",
      "type": "event"
    },
    {
      "inputs": [
        {
          "internalType": "address",
          "name": "owner",
          "type": "address"
        },
        {
          "internalType": "address",
          "name": "spender",
          "type": "address"
        }
      ],
      "name": "allowance",
      "outputs": [
        {
          "internalType": "uint256",
          "name": "",
          "type": "uint256"
        }
      ],
      "stateMutability": "view",
      "type": "function"
    },
    {
      "inputs": [
        {
          "internalType": "address",
          "name": "spender",
          "type": "address"
        },
        {
          "internalType": "uint256",
          "name": "amount",
          "type": "uint256"
        }
      ],
      "name": "approve",
      "outputs": [
        {
          "internalType": "bool",
          "name": "",
          "type": "bool"
        }
      ],
      "stateMutability": "nonpayable",
      "type": "function"
    },
    {
      "inputs": [
        {
          "internalType": "address",
          "name": "account",
          "type": "address"
        }
      ],
      "name": "balanceOf",
      "outputs": [
        {
          "internalType": "uint256",
          "name": "",
          "type": "uint256"
        }
      ],
      "stateMutability": "view",
      "type": "function"
    },
    {
      "inputs": [
        {
          "internalType": "uint256",
          "name": "amount",
          "type": "uint256"
        }
      ],
      "name": "burn",
      "outputs": [],
      "stateMutability": "nonpayable",
      "type": "function"
    },
    {
      "inputs": [
        {
          "internalType": "address",
          "name": "account",
          "type": "address"
        },
        {
          "internalType": "uint256",
          "name": "amount",
          "type": "uint256"
        }
      ],
      "name": "burnFrom",
      "outputs": [],
      "stateMutability": "nonpayable",
      "type": "function"
    },
    {
      "inputs": [],
      "name": "cap",
      "outputs": [
        {
          "internalType": "uint256",
          "name": "",
          "type": "uint256"
        }
      ],
      "stateMutability": "view",
      "type": "function"
    },
    {
      "inputs": [],
      "name": "decimals",
      "outputs": [
        {
          "internalType": "uint8",
          "name": "",
          "type": "uint8"
        }
      ],
      "stateMutability": "view",
      "type": "function"
    },
    {
      "inputs": [
        {
          "internalType": "address",
          "name": "spender",
          "type": "address"
        },
        {
          "internalType": "uint256",
          "name": "subtractedValue",
          "type": "uint256"
        }
      ],
      "name": "decreaseAllowance",
      "outputs": [
        {
          "internalType": "bool",
          "name": "",
          "type": "bool"
        }
      ],
      "stateMutability": "nonpayable",
      "type": "function"
    },
    {
      "inputs": [],
      "name": "finishMinting",
      "outputs": [],
      "stateMutability": "nonpayable",
      "type": "function"
    },
    {
      "inputs": [],
      "name": "getTokenName",
      "outputs": [
        {
          "internalType": "string",
          "name": "",
          "type": "string"
        }
      ],
      "stateMutability": "view",
      "type": "function"
    },
    {
      "inputs": [
        {
          "internalType": "address",
          "name": "spender",
          "type": "address"
        },
        {
          "internalType": "uint256",
          "name": "addedValue",
          "type": "uint256"
        }
      ],
      "name": "increaseAllowance",
      "outputs": [
        {
          "internalType": "bool",
          "name": "",
          "type": "bool"
        }
      ],
      "stateMutability": "nonpayable",
      "type": "function"
    },
    {
      "inputs": [
        {
          "internalType": "address",
          "name": "account",
          "type": "address"
        },
        {
          "internalType": "uint256",
          "name": "amount",
          "type": "uint256"
        }
      ],
      "name": "mint",
      "outputs": [],
      "stateMutability": "nonpayable",
      "type": "function"
    },
    {
      "inputs": [],
      "name": "mintingFinished",
      "outputs": [
        {
          "internalType": "bool",
          "name": "",
          "type": "bool"
        }
      ],
      "stateMutability": "view",
      "type": "function"
    },
    {
      "inputs": [],
      "name": "name",
      "outputs": [
        {
          "internalType": "string",
          "name": "",
          "type": "string"
        }
      ],
      "stateMutability": "view",
      "type": "function"
    },
    {
      "inputs": [],
      "name": "owner",
      "outputs": [
        {
          "internalType": "address",
          "name": "",
          "type": "address"
        }
      ],
      "stateMutability": "view",
      "type": "function"
    },
    {
      "inputs": [
        {
          "internalType": "address",
          "name": "tokenAddress",
          "type": "address"
        },
        {
          "internalType": "uint256",
          "name": "tokenAmount",
          "type": "uint256"
        }
      ],
      "name": "recoverToken",
      "outputs": [],
      "stateMutability": "nonpayable",
      "type": "function"
    },
    {
      "inputs": [],
      "name": "renounceOwnership",
      "outputs": [],
      "stateMutability": "nonpayable",
      "type": "function"
    },
    {
      "inputs": [],
      "name": "symbol",
      "outputs": [
        {
          "internalType": "string",
          "name": "",
          "type": "string"
        }
      ],
      "stateMutability": "view",
      "type": "function"
    },
    {
      "inputs": [],
      "name": "tokenName",
      "outputs": [
        {
          "internalType": "string",
          "name": "",
          "type": "string"
        }
      ],
      "stateMutability": "view",
      "type": "function"
    },
    {
      "inputs": [],
      "name": "totalSupply",
      "outputs": [
        {
          "internalType": "uint256",
          "name": "",
          "type": "uint256"
        }
      ],
      "stateMutability": "view",
      "type": "function"
    },
    {
      "inputs": [
        {
          "internalType": "address",
          "name": "recipient",
          "type": "address"
        },
        {
          "internalType": "uint256",
          "name": "amount",
          "type": "uint256"
        }
      ],
      "name": "transfer",
      "outputs": [
        {
          "internalType": "bool",
          "name": "",
          "type": "bool"
        }
      ],
      "stateMutability": "nonpayable",
      "type": "function"
    },
    {
      "inputs": [
        {
          "internalType": "address",
          "name": "sender",
          "type": "address"
        },
        {
          "internalType": "address",
          "name": "recipient",
          "type": "address"
        },
        {
          "internalType": "uint256",
          "name": "amount",
          "type": "uint256"
        }
      ],
      "name": "transferFrom",
      "outputs": [
        {
          "internalType": "bool",
          "name": "",
          "type": "bool"
        }
      ],
      "stateMutability": "nonpayable",
      "type": "function"
    },
    {
      "inputs": [
        {
          "internalType": "address",
          "name": "newOwner",
          "type": "address"
        }
      ],
      "name": "transferOwnership",
      "outputs": [],
      "stateMutability": "nonpayable",
      "type": "function"
    }
  ],
  "bytecode": "0x60c06040526005805460ff191690553480156200001b57600080fd5b50604051620019ec380380620019ec8339810160408190526200003e91620003d5565b604051806040016040528060098152602001682130b9b2aa37b5b2b760b91b8152508284878781600390805190602001906200007c92919062000284565b5080516200009290600490602084019062000284565b50505060f81b7fff000000000000000000000000000000000000000000000000000000000000001660805280620000e65760405162461bcd60e51b8152600401620000dd9062000467565b60405180910390fd5b60a0526000620000f5620001b0565b60058054610100600160a81b0319166101006001600160a01b03841690810291909117909155604051919250906000907f8be0079c531659141344cd1fd0a4f28419497f9722a3daafe3b4186f6b6457e0908290a35080516200016090600690602084019062000284565b505081811115620001855760405162461bcd60e51b8152600401620000dd906200049e565b620001a562000193620001b0565b82620001b460201b6200093b1760201c565b50505050506200058d565b3390565b6001600160a01b038216620001dd5760405162461bcd60e51b8152600401620000dd90620004d5565b620001eb600083836200027f565b8060026000828254620001ff919062000515565b90915550506001600160a01b038216600090815260208190526040812080548392906200022e90849062000515565b90915550506040516001600160a01b038316906000907fddf252ad1be2c89b69c2b068fc378daa952ba7f163c4a11628f55a4df523b3ef90620002739085906200050c565b60405180910390a35050565b505050565b82805462000292906200053a565b90600052602060002090601f016020900481019282620002b6576000855562000301565b82601f10620002d157805160ff191683800117855562000301565b8280016001018555821562000301579182015b8281111562000301578251825591602001919060010190620002e4565b506200030f92915062000313565b5090565b5b808211156200030f576000815560010162000314565b600082601f8301126200033b578081fd5b81516001600160401b038082111562000358576200035862000577565b6040516020601f8401601f191682018101838111838210171562000380576200038062000577565b604052838252858401810187101562000397578485fd5b8492505b83831015620003ba57858301810151828401820152918201916200039b565b83831115620003cb57848185840101525b5095945050505050565b600080600080600060a08688031215620003ed578081fd5b85516001600160401b038082111562000404578283fd5b6200041289838a016200032a565b9650602088015191508082111562000428578283fd5b5062000437888289016200032a565b945050604086015160ff811681146200044e578182fd5b6060870151608090970151959894975095949392505050565b60208082526015908201527f45524332304361707065643a2063617020697320300000000000000000000000604082015260600190565b60208082526019908201527f45524332304361707065643a2063617020657863656564656400000000000000604082015260600190565b6020808252601f908201527f45524332303a206d696e7420746f20746865207a65726f206164647265737300604082015260600190565b90815260200190565b600082198211156200053557634e487b7160e01b81526011600452602481fd5b500190565b6002810460018216806200054f57607f821691505b602082108114156200057157634e487b7160e01b600052602260045260246000fd5b50919050565b634e487b7160e01b600052604160045260246000fd5b60805160f81c60a051611436620005b6600039600061044901526000610bdd01526114366000f3fe608060405234801561001057600080fd5b506004361061014d5760003560e01c806370a08231116100c357806395d89b411161007c57806395d89b4114610273578063a457c2d71461027b578063a9059cbb1461028e578063b29a8140146102a1578063dd62ed3e146102b4578063f2fde38b146102c75761014d565b806370a0823114610220578063715018a61461023357806379cc67901461023b5780637d64bcb41461024e578063862b092b146102565780638da5cb5b1461025e5761014d565b8063313ce56711610115578063313ce567146101c0578063355274ea146101d557806339509351146101dd57806340c10f19146101f057806342966c68146102055780636c02a931146102185761014d565b806305d2035b1461015257806306fdde0314610170578063095ea7b31461018557806318160ddd1461019857806323b872dd146101ad575b600080fd5b61015a6102da565b6040516101679190610f23565b60405180910390f35b6101786102e3565b6040516101679190610f2e565b61015a610193366004610e95565b610375565b6101a0610392565b6040516101679190611369565b61015a6101bb366004610e5a565b610398565b6101c8610438565b6040516101679190611372565b6101a0610447565b61015a6101eb366004610e95565b61046b565b6102036101fe366004610e95565b6104ba565b005b610203610213366004610ede565b6104eb565b6101786104ff565b6101a061022e366004610e07565b61058d565b6102036105ac565b610203610249366004610e95565b61063b565b610203610690565b6101786106bd565b6102666106cc565b6040516101679190610ef6565b6101786106e0565b61015a610289366004610e95565b6106ef565b61015a61029c366004610e95565b61076a565b6102036102af366004610e95565b61077e565b6101a06102c2366004610e28565b610844565b6102036102d5366004610e07565b61086f565b60055460ff1690565b6060600380546102f2906113af565b80601f016020809104026020016040519081016040528092919081815260200182805461031e906113af565b801561036b5780601f106103405761010080835404028352916020019161036b565b820191906000526020600020905b81548152906001019060200180831161034e57829003601f168201915b5050505050905090565b60006103896103826109fb565b84846109ff565b50600192915050565b60025490565b60006103a5848484610ab3565b6001600160a01b0384166000908152600160205260408120816103c66109fb565b6001600160a01b03166001600160a01b03168152602001908152602001600020549050828110156104125760405162461bcd60e51b81526004016104099061111e565b60405180910390fd5b61042d8561041e6109fb565b6104288685611398565b6109ff565b506001949350505050565b6000610442610bdb565b905090565b7f000000000000000000000000000000000000000000000000000000000000000090565b60006103896104786109fb565b8484600160006104866109fb565b6001600160a01b03908116825260208083019390935260409182016000908120918b16815292529020546104289190611380565b60055460ff16156104dd5760405162461bcd60e51b8152600401610409906112ab565b6104e78282610bff565b5050565b6104fc6104f66109fb565b82610c48565b50565b6006805461050c906113af565b80601f0160208091040260200160405190810160405280929190818152602001828054610538906113af565b80156105855780601f1061055a57610100808354040283529160200191610585565b820191906000526020600020905b81548152906001019060200180831161056857829003601f168201915b505050505081565b6001600160a01b0381166000908152602081905260409020545b919050565b6105b46109fb565b6001600160a01b03166105c56106cc565b6001600160a01b0316146105eb5760405162461bcd60e51b8152600401610409906110d9565b60055460405160009161010090046001600160a01b0316907f8be0079c531659141344cd1fd0a4f28419497f9722a3daafe3b4186f6b6457e0908390a360058054610100600160a81b0319169055565b6000610649836102c26109fb565b90508181101561066b5760405162461bcd60e51b815260040161040990611166565b610681836106776109fb565b6104288585611398565b61068b8383610c48565b505050565b60055460ff16156106b35760405162461bcd60e51b8152600401610409906112ab565b6106bb610d2e565b565b6060600680546102f2906113af565b60055461010090046001600160a01b031690565b6060600480546102f2906113af565b600080600160006106fe6109fb565b6001600160a01b039081168252602080830193909352604091820160009081209188168152925290205490508281101561074a5760405162461bcd60e51b8152600401610409906112ed565b6107606107556109fb565b856104288685611398565b5060019392505050565b60006103896107776109fb565b8484610ab3565b6107866109fb565b6001600160a01b03166107976106cc565b6001600160a01b0316146107bd5760405162461bcd60e51b8152600401610409906110d9565b816001600160a01b031663a9059cbb6107d46106cc565b836040518363ffffffff1660e01b81526004016107f2929190610f0a565b602060405180830381600087803b15801561080c57600080fd5b505af1158015610820573d6000803e3d6000fd5b505050506040513d601f19601f8201168201806040525081019061068b9190610ebe565b6001600160a01b03918216600090815260016020908152604080832093909416825291909152205490565b6108776109fb565b6001600160a01b03166108886106cc565b6001600160a01b0316146108ae5760405162461bcd60e51b8152600401610409906110d9565b6001600160a01b0381166108d45760405162461bcd60e51b81526004016104099061108e565b6005546040516001600160a01b0380841692610100900416907f8be0079c531659141344cd1fd0a4f28419497f9722a3daafe3b4186f6b6457e090600090a3600580546001600160a01b0390921661010002610100600160a81b0319909216919091179055565b6001600160a01b0382166109615760405162461bcd60e51b815260040161040990611332565b61096d6000838361068b565b806002600082825461097f9190611380565b90915550506001600160a01b038216600090815260208190526040812080548392906109ac908490611380565b90915550506040516001600160a01b038316906000907fddf252ad1be2c89b69c2b068fc378daa952ba7f163c4a11628f55a4df523b3ef906109ef908590611369565b60405180910390a35050565b3390565b6001600160a01b038316610a255760405162461bcd60e51b815260040161040990611267565b6001600160a01b038216610a4b5760405162461bcd60e51b815260040161040990611006565b6001600160a01b0380841660008181526001602090815260408083209487168084529490915290819020849055517f8c5be1e5ebec7d5bd14f71427d1e84f3dd0314c0f7b2291e5b200ac8c7c3b92590610aa6908590611369565b60405180910390a3505050565b6001600160a01b038316610ad95760405162461bcd60e51b8152600401610409906111eb565b6001600160a01b038216610aff5760405162461bcd60e51b815260040161040990610f81565b610b0a83838361068b565b6001600160a01b03831660009081526020819052604090205481811015610b435760405162461bcd60e51b815260040161040990611048565b610b4d8282611398565b6001600160a01b038086166000908152602081905260408082209390935590851681529081208054849290610b83908490611380565b92505081905550826001600160a01b0316846001600160a01b03167fddf252ad1be2c89b69c2b068fc378daa952ba7f163c4a11628f55a4df523b3ef84604051610bcd9190611369565b60405180910390a350505050565b7f000000000000000000000000000000000000000000000000000000000000000090565b610c076109fb565b6001600160a01b0316610c186106cc565b6001600160a01b031614610c3e5760405162461bcd60e51b8152600401610409906110d9565b6104e78282610d75565b6001600160a01b038216610c6e5760405162461bcd60e51b8152600401610409906111aa565b610c7a8260008361068b565b6001600160a01b03821660009081526020819052604090205481811015610cb35760405162461bcd60e51b815260040161040990610fc4565b610cbd8282611398565b6001600160a01b03841660009081526020819052604081209190915560028054849290610ceb908490611398565b90915550506040516000906001600160a01b038516907fddf252ad1be2c89b69c2b068fc378daa952ba7f163c4a11628f55a4df523b3ef90610aa6908690611369565b610d366109fb565b6001600160a01b0316610d476106cc565b6001600160a01b031614610d6d5760405162461bcd60e51b8152600401610409906110d9565b6106bb610db8565b610d7d610447565b81610d86610392565b610d909190611380565b1115610dae5760405162461bcd60e51b815260040161040990611230565b6104e7828261093b565b6005805460ff191660011790556040517fae5184fba832cb2b1f702aca6117b8d265eaf03ad33eb133f19dde0f5920fa0890600090a1565b80356001600160a01b03811681146105a757600080fd5b600060208284031215610e18578081fd5b610e2182610df0565b9392505050565b60008060408385031215610e3a578081fd5b610e4383610df0565b9150610e5160208401610df0565b90509250929050565b600080600060608486031215610e6e578081fd5b610e7784610df0565b9250610e8560208501610df0565b9150604084013590509250925092565b60008060408385031215610ea7578182fd5b610eb083610df0565b946020939093013593505050565b600060208284031215610ecf578081fd5b81518015158114610e21578182fd5b600060208284031215610eef578081fd5b5035919050565b6001600160a01b0391909116815260200190565b6001600160a01b03929092168252602082015260400190565b901515815260200190565b6000602080835283518082850152825b81811015610f5a57858101830151858201604001528201610f3e565b81811115610f6b5783604083870101525b50601f01601f1916929092016040019392505050565b60208082526023908201527f45524332303a207472616e7366657220746f20746865207a65726f206164647260408201526265737360e81b606082015260800190565b60208082526022908201527f45524332303a206275726e20616d6f756e7420657863656564732062616c616e604082015261636560f01b606082015260800190565b60208082526022908201527f45524332303a20617070726f766520746f20746865207a65726f206164647265604082015261737360f01b606082015260800190565b60208082526026908201527f45524332303a207472616e7366657220616d6f756e7420657863656564732062604082015265616c616e636560d01b606082015260800190565b6020808252602b908201527f45524332304f776e61626c653a206e6577206f776e657220697320746865207a60408201526a65726f206164647265737360a81b606082015260800190565b60208082526025908201527f45524332304f776e61626c653a2063616c6c6572206973206e6f74207468652060408201526437bbb732b960d91b606082015260800190565b60208082526028908201527f45524332303a207472616e7366657220616d6f756e74206578636565647320616040820152676c6c6f77616e636560c01b606082015260800190565b60208082526024908201527f45524332303a206275726e20616d6f756e74206578636565647320616c6c6f77604082015263616e636560e01b606082015260800190565b60208082526021908201527f45524332303a206275726e2066726f6d20746865207a65726f206164647265736040820152607360f81b606082015260800190565b60208082526025908201527f45524332303a207472616e736665722066726f6d20746865207a65726f206164604082015264647265737360d81b606082015260800190565b60208082526019908201527f45524332304361707065643a2063617020657863656564656400000000000000604082015260600190565b60208082526024908201527f45524332303a20617070726f76652066726f6d20746865207a65726f206164646040820152637265737360e01b606082015260800190565b60208082526022908201527f45524332304d696e7461626c653a206d696e74696e672069732066696e697368604082015261195960f21b606082015260800190565b60208082526025908201527f45524332303a2064656372656173656420616c6c6f77616e63652062656c6f77604082015264207a65726f60d81b606082015260800190565b6020808252601f908201527f45524332303a206d696e7420746f20746865207a65726f206164647265737300604082015260600190565b90815260200190565b60ff91909116815260200190565b60008219821115611393576113936113ea565b500190565b6000828210156113aa576113aa6113ea565b500390565b6002810460018216806113c357607f821691505b602082108114156113e457634e487b7160e01b600052602260045260246000fd5b50919050565b634e487b7160e01b600052601160045260246000fdfea2646970667358221220386eabbcc306206e1c1f7993d61ccdb29f53f7ffc4090abf0bea2f2d61d35a6464736f6c63430008000033",
  "linkReferences": {},
  "deployedLinkReferences": {}
}