{
  "_format": "hh-sol-artifact-1",
  "contractName": "BaseToken_A",
  "sourceName": "contracts/BaseToken/Flatten_A.sol",
  "abi": [
    {
      "inputs": [
        {
          "internalType": "string",
          "name": "_name",
          "type": "string"
        },
        {
          "internalType": "string",
          "name": "_symbol",
          "type": "string"
        },
        {
          "internalType": "uint8",
          "name": "_decimals",
          "type": "uint8"
        },
        {
          "internalType": "uint256",
          "name": "_cap",
          "type": "uint256"
        }
      ],
      "stateMutability": "nonpayable",
      "type": "constructor"
    },
    {
      "anonymous": false,
      "inputs": [
        {
          "indexed": true,
          "internalType": "address",
          "name": "owner",
          "type": "address"
        },
        {
          "indexed": true,
          "internalType": "address",
          "name": "spender",
          "type": "address"
        },
        {
          "indexed": false,
          "internalType": "uint256",
          "name": "value",
          "type": "uint256"
        }
      ],
      "name": "Approval",
      "type": "event"
    },
    {
      "anonymous": false,
      "inputs": [
        {
          "indexed": true,
          "internalType": "address",
          "name": "previousOwner",
          "type": "address"
        },
        {
          "indexed": true,
          "internalType": "address",
          "name": "newOwner",
          "type": "address"
        }
      ],
      "name": "OwnershipTransferred",
      "type": "event"
    },
    {
      "anonymous": false,
      "inputs": [
        {
          "indexed": true,
          "internalType": "address",
          "name": "from",
          "type": "address"
        },
        {
          "indexed": true,
          "internalType": "address",
          "name": "to",
          "type": "address"
        },
        {
          "indexed": false,
          "internalType": "uint256",
          "name": "value",
          "type": "uint256"
        }
      ],
      "name": "Transfer",
      "type": "event"
    },
    {
      "inputs": [
        {
          "internalType": "address[]",
          "name": "_recipients",
          "type": "address[]"
        },
        {
          "internalType": "uint256[]",
          "name": "_values",
          "type": "uint256[]"
        }
      ],
      "name": "Airdrop",
      "outputs": [],
      "stateMutability": "nonpayable",
      "type": "function"
    },
    {
      "inputs": [
        {
          "internalType": "address",
          "name": "owner",
          "type": "address"
        },
        {
          "internalType": "address",
          "name": "spender",
          "type": "address"
        }
      ],
      "name": "allowance",
      "outputs": [
        {
          "internalType": "uint256",
          "name": "",
          "type": "uint256"
        }
      ],
      "stateMutability": "view",
      "type": "function"
    },
    {
      "inputs": [
        {
          "internalType": "address",
          "name": "spender",
          "type": "address"
        },
        {
          "internalType": "uint256",
          "name": "amount",
          "type": "uint256"
        }
      ],
      "name": "approve",
      "outputs": [
        {
          "internalType": "bool",
          "name": "",
          "type": "bool"
        }
      ],
      "stateMutability": "nonpayable",
      "type": "function"
    },
    {
      "inputs": [
        {
          "internalType": "address",
          "name": "account",
          "type": "address"
        }
      ],
      "name": "balanceOf",
      "outputs": [
        {
          "internalType": "uint256",
          "name": "",
          "type": "uint256"
        }
      ],
      "stateMutability": "view",
      "type": "function"
    },
    {
      "inputs": [],
      "name": "decimals",
      "outputs": [
        {
          "internalType": "uint8",
          "name": "",
          "type": "uint8"
        }
      ],
      "stateMutability": "view",
      "type": "function"
    },
    {
      "inputs": [
        {
          "internalType": "address",
          "name": "spender",
          "type": "address"
        },
        {
          "internalType": "uint256",
          "name": "subtractedValue",
          "type": "uint256"
        }
      ],
      "name": "decreaseAllowance",
      "outputs": [
        {
          "internalType": "bool",
          "name": "",
          "type": "bool"
        }
      ],
      "stateMutability": "nonpayable",
      "type": "function"
    },
    {
      "inputs": [],
      "name": "getTokenName",
      "outputs": [
        {
          "internalType": "string",
          "name": "",
          "type": "string"
        }
      ],
      "stateMutability": "view",
      "type": "function"
    },
    {
      "inputs": [
        {
          "internalType": "address",
          "name": "spender",
          "type": "address"
        },
        {
          "internalType": "uint256",
          "name": "addedValue",
          "type": "uint256"
        }
      ],
      "name": "increaseAllowance",
      "outputs": [
        {
          "internalType": "bool",
          "name": "",
          "type": "bool"
        }
      ],
      "stateMutability": "nonpayable",
      "type": "function"
    },
    {
      "inputs": [],
      "name": "name",
      "outputs": [
        {
          "internalType": "string",
          "name": "",
          "type": "string"
        }
      ],
      "stateMutability": "view",
      "type": "function"
    },
    {
      "inputs": [],
      "name": "owner",
      "outputs": [
        {
          "internalType": "address",
          "name": "",
          "type": "address"
        }
      ],
      "stateMutability": "view",
      "type": "function"
    },
    {
      "inputs": [
        {
          "internalType": "address",
          "name": "tokenAddress",
          "type": "address"
        },
        {
          "internalType": "uint256",
          "name": "tokenAmount",
          "type": "uint256"
        }
      ],
      "name": "recoverToken",
      "outputs": [],
      "stateMutability": "nonpayable",
      "type": "function"
    },
    {
      "inputs": [],
      "name": "renounceOwnership",
      "outputs": [],
      "stateMutability": "nonpayable",
      "type": "function"
    },
    {
      "inputs": [],
      "name": "symbol",
      "outputs": [
        {
          "internalType": "string",
          "name": "",
          "type": "string"
        }
      ],
      "stateMutability": "view",
      "type": "function"
    },
    {
      "inputs": [],
      "name": "tokenName",
      "outputs": [
        {
          "internalType": "string",
          "name": "",
          "type": "string"
        }
      ],
      "stateMutability": "view",
      "type": "function"
    },
    {
      "inputs": [],
      "name": "totalSupply",
      "outputs": [
        {
          "internalType": "uint256",
          "name": "",
          "type": "uint256"
        }
      ],
      "stateMutability": "view",
      "type": "function"
    },
    {
      "inputs": [
        {
          "internalType": "address",
          "name": "recipient",
          "type": "address"
        },
        {
          "internalType": "uint256",
          "name": "amount",
          "type": "uint256"
        }
      ],
      "name": "transfer",
      "outputs": [
        {
          "internalType": "bool",
          "name": "",
          "type": "bool"
        }
      ],
      "stateMutability": "nonpayable",
      "type": "function"
    },
    {
      "inputs": [
        {
          "internalType": "address",
          "name": "sender",
          "type": "address"
        },
        {
          "internalType": "address",
          "name": "recipient",
          "type": "address"
        },
        {
          "internalType": "uint256",
          "name": "amount",
          "type": "uint256"
        }
      ],
      "name": "transferFrom",
      "outputs": [
        {
          "internalType": "bool",
          "name": "",
          "type": "bool"
        }
      ],
      "stateMutability": "nonpayable",
      "type": "function"
    },
    {
      "inputs": [
        {
          "internalType": "address",
          "name": "newOwner",
          "type": "address"
        }
      ],
      "name": "transferOwnership",
      "outputs": [],
      "stateMutability": "nonpayable",
      "type": "function"
    }
  ],
  "bytecode": "0x60a06040523480156200001157600080fd5b506040516200164f3803806200164f83398101604081905262000034916200037e565b6040518060400160405280600b81526020016a42617365546f6b656e5f4160a81b8152508285858160039080519060200190620000739291906200022d565b508051620000899060049060208401906200022d565b50505060f81b7fff00000000000000000000000000000000000000000000000000000000000000166080526000620000c062000150565b600580546001600160a01b0319166001600160a01b038316908117909155604051919250906000907f8be0079c531659141344cd1fd0a4f28419497f9722a3daafe3b4186f6b6457e0908290a3508051620001239060069060208401906200022d565b506200014690506200013462000150565b826200015460201b620008861760201c565b50505050620004bd565b3390565b6001600160a01b038216620001865760405162461bcd60e51b81526004016200017d9062000405565b60405180910390fd5b620001946000838362000228565b8060026000828254620001a8919062000445565b90915550506001600160a01b03821660009081526020819052604081208054839290620001d790849062000445565b90915550506040516001600160a01b038316906000907fddf252ad1be2c89b69c2b068fc378daa952ba7f163c4a11628f55a4df523b3ef906200021c9085906200043c565b60405180910390a35050565b505050565b8280546200023b906200046a565b90600052602060002090601f0160209004810192826200025f5760008555620002aa565b82601f106200027a57805160ff1916838001178555620002aa565b82800160010185558215620002aa579182015b82811115620002aa5782518255916020019190600101906200028d565b50620002b8929150620002bc565b5090565b5b80821115620002b85760008155600101620002bd565b600082601f830112620002e4578081fd5b81516001600160401b0380821115620003015762000301620004a7565b6040516020601f8401601f1916820181018381118382101715620003295762000329620004a7565b604052838252858401810187101562000340578485fd5b8492505b8383101562000363578583018101518284018201529182019162000344565b838311156200037457848185840101525b5095945050505050565b6000806000806080858703121562000394578384fd5b84516001600160401b0380821115620003ab578586fd5b620003b988838901620002d3565b95506020870151915080821115620003cf578485fd5b50620003de87828801620002d3565b935050604085015160ff81168114620003f5578283fd5b6060959095015193969295505050565b6020808252601f908201527f45524332303a206d696e7420746f20746865207a65726f206164647265737300604082015260600190565b90815260200190565b600082198211156200046557634e487b7160e01b81526011600452602481fd5b500190565b6002810460018216806200047f57607f821691505b60208210811415620004a157634e487b7160e01b600052602260045260246000fd5b50919050565b634e487b7160e01b600052604160045260246000fd5b60805160f81c611173620004dc6000396000610b2801526111736000f3fe608060405234801561001057600080fd5b50600436106101165760003560e01c8063862b092b116100a2578063a9059cbb11610071578063a9059cbb14610206578063b29a814014610219578063c558ae6b1461022c578063dd62ed3e1461023f578063f2fde38b1461025257610116565b8063862b092b146101ce5780638da5cb5b146101d657806395d89b41146101eb578063a457c2d7146101f357610116565b8063313ce567116100e9578063313ce5671461018157806339509351146101965780636c02a931146101a957806370a08231146101b1578063715018a6146101c457610116565b806306fdde031461011b578063095ea7b31461013957806318160ddd1461015957806323b872dd1461016e575b600080fd5b610123610265565b6040516101309190610d22565b60405180910390f35b61014c610147366004610c38565b6102f7565b6040516101309190610d17565b610161610314565b604051610130919061108b565b61014c61017c366004610bfd565b61031a565b6101896103ba565b6040516101309190611094565b61014c6101a4366004610c38565b6103c9565b610123610418565b6101616101bf366004610baa565b6104a6565b6101cc6104c5565b005b61012361054e565b6101de61055d565b6040516101309190610cea565b61012361056c565b61014c610201366004610c38565b61057b565b61014c610214366004610c38565b6105f6565b6101cc610227366004610c38565b61060a565b6101cc61023a366004610c61565b6106d5565b61016161024d366004610bcb565b61079a565b6101cc610260366004610baa565b6107c5565b606060038054610274906110d1565b80601f01602080910402602001604051908101604052809291908181526020018280546102a0906110d1565b80156102ed5780601f106102c2576101008083540402835291602001916102ed565b820191906000526020600020905b8154815290600101906020018083116102d057829003601f168201915b5050505050905090565b600061030b610304610946565b848461094a565b50600192915050565b60025490565b60006103278484846109fe565b6001600160a01b038416600090815260016020526040812081610348610946565b6001600160a01b03166001600160a01b03168152602001908152602001600020549050828110156103945760405162461bcd60e51b815260040161038b90610f07565b60405180910390fd5b6103af856103a0610946565b6103aa86856110ba565b61094a565b506001949350505050565b60006103c4610b26565b905090565b600061030b6103d6610946565b8484600160006103e4610946565b6001600160a01b03908116825260208083019390935260409182016000908120918b16815292529020546103aa91906110a2565b60068054610425906110d1565b80601f0160208091040260200160405190810160405280929190818152602001828054610451906110d1565b801561049e5780601f106104735761010080835404028352916020019161049e565b820191906000526020600020905b81548152906001019060200180831161048157829003601f168201915b505050505081565b6001600160a01b0381166000908152602081905260409020545b919050565b6104cd610946565b6001600160a01b03166104de61055d565b6001600160a01b0316146105045760405162461bcd60e51b815260040161038b90610ec2565b6005546040516000916001600160a01b0316907f8be0079c531659141344cd1fd0a4f28419497f9722a3daafe3b4186f6b6457e0908390a3600580546001600160a01b0319169055565b606060068054610274906110d1565b6005546001600160a01b031690565b606060048054610274906110d1565b6000806001600061058a610946565b6001600160a01b03908116825260208083019390935260409182016000908120918816815292529020549050828110156105d65760405162461bcd60e51b815260040161038b9061100f565b6105ec6105e1610946565b856103aa86856110ba565b5060019392505050565b600061030b610603610946565b84846109fe565b610612610946565b6001600160a01b031661062361055d565b6001600160a01b0316146106495760405162461bcd60e51b815260040161038b90610ec2565b816001600160a01b031663a9059cbb61066061055d565b836040518363ffffffff1660e01b815260040161067e929190610cfe565b602060405180830381600087803b15801561069857600080fd5b505af11580156106ac573d6000803e3d6000fd5b505050506040513d601f19601f820116820180604052508101906106d09190610cca565b505050565b826106f25760405162461bcd60e51b815260040161038b90610f4f565b8281146107115760405162461bcd60e51b815260040161038b90610e40565b60005b838110156107935761078085858381811061073f57634e487b7160e01b600052603260045260246000fd5b90506020020160208101906107549190610baa565b84848481811061077457634e487b7160e01b600052603260045260246000fd5b905060200201356105f6565b508061078b8161110c565b915050610714565b5050505050565b6001600160a01b03918216600090815260016020908152604080832093909416825291909152205490565b6107cd610946565b6001600160a01b03166107de61055d565b6001600160a01b0316146108045760405162461bcd60e51b815260040161038b90610ec2565b6001600160a01b03811661082a5760405162461bcd60e51b815260040161038b90610e77565b6005546040516001600160a01b038084169216907f8be0079c531659141344cd1fd0a4f28419497f9722a3daafe3b4186f6b6457e090600090a3600580546001600160a01b0319166001600160a01b0392909216919091179055565b6001600160a01b0382166108ac5760405162461bcd60e51b815260040161038b90611054565b6108b8600083836106d0565b80600260008282546108ca91906110a2565b90915550506001600160a01b038216600090815260208190526040812080548392906108f79084906110a2565b90915550506040516001600160a01b038316906000907fddf252ad1be2c89b69c2b068fc378daa952ba7f163c4a11628f55a4df523b3ef9061093a90859061108b565b60405180910390a35050565b3390565b6001600160a01b0383166109705760405162461bcd60e51b815260040161038b90610fcb565b6001600160a01b0382166109965760405162461bcd60e51b815260040161038b90610db8565b6001600160a01b0380841660008181526001602090815260408083209487168084529490915290819020849055517f8c5be1e5ebec7d5bd14f71427d1e84f3dd0314c0f7b2291e5b200ac8c7c3b925906109f190859061108b565b60405180910390a3505050565b6001600160a01b038316610a245760405162461bcd60e51b815260040161038b90610f86565b6001600160a01b038216610a4a5760405162461bcd60e51b815260040161038b90610d75565b610a558383836106d0565b6001600160a01b03831660009081526020819052604090205481811015610a8e5760405162461bcd60e51b815260040161038b90610dfa565b610a9882826110ba565b6001600160a01b038086166000908152602081905260408082209390935590851681529081208054849290610ace9084906110a2565b92505081905550826001600160a01b0316846001600160a01b03167fddf252ad1be2c89b69c2b068fc378daa952ba7f163c4a11628f55a4df523b3ef84604051610b18919061108b565b60405180910390a350505050565b7f000000000000000000000000000000000000000000000000000000000000000090565b80356001600160a01b03811681146104c057600080fd5b60008083601f840112610b72578182fd5b50813567ffffffffffffffff811115610b89578182fd5b6020830191508360208083028501011115610ba357600080fd5b9250929050565b600060208284031215610bbb578081fd5b610bc482610b4a565b9392505050565b60008060408385031215610bdd578081fd5b610be683610b4a565b9150610bf460208401610b4a565b90509250929050565b600080600060608486031215610c11578081fd5b610c1a84610b4a565b9250610c2860208501610b4a565b9150604084013590509250925092565b60008060408385031215610c4a578182fd5b610c5383610b4a565b946020939093013593505050565b60008060008060408587031215610c76578081fd5b843567ffffffffffffffff80821115610c8d578283fd5b610c9988838901610b61565b90965094506020870135915080821115610cb1578283fd5b50610cbe87828801610b61565b95989497509550505050565b600060208284031215610cdb578081fd5b81518015158114610bc4578182fd5b6001600160a01b0391909116815260200190565b6001600160a01b03929092168252602082015260400190565b901515815260200190565b6000602080835283518082850152825b81811015610d4e57858101830151858201604001528201610d32565b81811115610d5f5783604083870101525b50601f01601f1916929092016040019392505050565b60208082526023908201527f45524332303a207472616e7366657220746f20746865207a65726f206164647260408201526265737360e81b606082015260800190565b60208082526022908201527f45524332303a20617070726f766520746f20746865207a65726f206164647265604082015261737360f01b606082015260800190565b60208082526026908201527f45524332303a207472616e7366657220616d6f756e7420657863656564732062604082015265616c616e636560d01b606082015260800190565b6020808252601c908201527f726563697069656e74732e6c656e20213d2076616c7565732e6c656e00000000604082015260600190565b6020808252602b908201527f45524332304f776e61626c653a206e6577206f776e657220697320746865207a60408201526a65726f206164647265737360a81b606082015260800190565b60208082526025908201527f45524332304f776e61626c653a2063616c6c6572206973206e6f74207468652060408201526437bbb732b960d91b606082015260800190565b60208082526028908201527f45524332303a207472616e7366657220616d6f756e74206578636565647320616040820152676c6c6f77616e636560c01b606082015260800190565b6020808252601b908201527f6e656564206174206c65617374206f6e6520726563697069656e740000000000604082015260600190565b60208082526025908201527f45524332303a207472616e736665722066726f6d20746865207a65726f206164604082015264647265737360d81b606082015260800190565b60208082526024908201527f45524332303a20617070726f76652066726f6d20746865207a65726f206164646040820152637265737360e01b606082015260800190565b60208082526025908201527f45524332303a2064656372656173656420616c6c6f77616e63652062656c6f77604082015264207a65726f60d81b606082015260800190565b6020808252601f908201527f45524332303a206d696e7420746f20746865207a65726f206164647265737300604082015260600190565b90815260200190565b60ff91909116815260200190565b600082198211156110b5576110b5611127565b500190565b6000828210156110cc576110cc611127565b500390565b6002810460018216806110e557607f821691505b6020821081141561110657634e487b7160e01b600052602260045260246000fd5b50919050565b600060001982141561112057611120611127565b5060010190565b634e487b7160e01b600052601160045260246000fdfea2646970667358221220ec3802f9aa9905ac845cc11ea2c5261332d3b9e4282d75ba8efc38c0ff447b0564736f6c63430008000033",
  "linkReferences": {},
  "deployedLinkReferences": {}
}