{
  "_format": "hh-sol-artifact-1",
  "contractName": "StandardERC20Token",
  "sourceName": "contracts/StandardERC20Token.sol",
  "abi": [
    {
      "constant": true,
      "inputs": [],
      "name": "name",
      "outputs": [
        {
          "name": "",
          "type": "string"
        }
      ],
      "payable": false,
      "stateMutability": "view",
      "type": "function"
    },
    {
      "constant": false,
      "inputs": [
        {
          "name": "spender",
          "type": "address"
        },
        {
          "name": "amount",
          "type": "uint256"
        }
      ],
      "name": "approve",
      "outputs": [
        {
          "name": "",
          "type": "bool"
        }
      ],
      "payable": false,
      "stateMutability": "nonpayable",
      "type": "function"
    },
    {
      "constant": true,
      "inputs": [],
      "name": "totalSupply",
      "outputs": [
        {
          "name": "",
          "type": "uint256"
        }
      ],
      "payable": false,
      "stateMutability": "view",
      "type": "function"
    },
    {
      "constant": false,
      "inputs": [
        {
          "name": "sender",
          "type": "address"
        },
        {
          "name": "recipient",
          "type": "address"
        },
        {
          "name": "amount",
          "type": "uint256"
        }
      ],
      "name": "transferFrom",
      "outputs": [
        {
          "name": "",
          "type": "bool"
        }
      ],
      "payable": false,
      "stateMutability": "nonpayable",
      "type": "function"
    },
    {
      "constant": true,
      "inputs": [],
      "name": "decimals",
      "outputs": [
        {
          "name": "",
          "type": "uint8"
        }
      ],
      "payable": false,
      "stateMutability": "view",
      "type": "function"
    },
    {
      "constant": false,
      "inputs": [
        {
          "name": "spender",
          "type": "address"
        },
        {
          "name": "addedValue",
          "type": "uint256"
        }
      ],
      "name": "increaseAllowance",
      "outputs": [
        {
          "name": "",
          "type": "bool"
        }
      ],
      "payable": false,
      "stateMutability": "nonpayable",
      "type": "function"
    },
    {
      "constant": true,
      "inputs": [
        {
          "name": "account",
          "type": "address"
        }
      ],
      "name": "balanceOf",
      "outputs": [
        {
          "name": "",
          "type": "uint256"
        }
      ],
      "payable": false,
      "stateMutability": "view",
      "type": "function"
    },
    {
      "constant": true,
      "inputs": [],
      "name": "symbol",
      "outputs": [
        {
          "name": "",
          "type": "string"
        }
      ],
      "payable": false,
      "stateMutability": "view",
      "type": "function"
    },
    {
      "constant": false,
      "inputs": [
        {
          "name": "spender",
          "type": "address"
        },
        {
          "name": "subtractedValue",
          "type": "uint256"
        }
      ],
      "name": "decreaseAllowance",
      "outputs": [
        {
          "name": "",
          "type": "bool"
        }
      ],
      "payable": false,
      "stateMutability": "nonpayable",
      "type": "function"
    },
    {
      "constant": false,
      "inputs": [
        {
          "name": "recipient",
          "type": "address"
        },
        {
          "name": "amount",
          "type": "uint256"
        }
      ],
      "name": "transfer",
      "outputs": [
        {
          "name": "",
          "type": "bool"
        }
      ],
      "payable": false,
      "stateMutability": "nonpayable",
      "type": "function"
    },
    {
      "constant": false,
      "inputs": [
        {
          "name": "_recipients",
          "type": "address[]"
        },
        {
          "name": "_values",
          "type": "uint256[]"
        }
      ],
      "name": "Airdrop",
      "outputs": [],
      "payable": false,
      "stateMutability": "nonpayable",
      "type": "function"
    },
    {
      "constant": true,
      "inputs": [
        {
          "name": "owner",
          "type": "address"
        },
        {
          "name": "spender",
          "type": "address"
        }
      ],
      "name": "allowance",
      "outputs": [
        {
          "name": "",
          "type": "uint256"
        }
      ],
      "payable": false,
      "stateMutability": "view",
      "type": "function"
    },
    {
      "inputs": [
        {
          "name": "name",
          "type": "string"
        },
        {
          "name": "symbol",
          "type": "string"
        },
        {
          "name": "decimals",
          "type": "uint8"
        },
        {
          "name": "initialHolder",
          "type": "address"
        },
        {
          "name": "amount",
          "type": "uint256"
        }
      ],
      "payable": false,
      "stateMutability": "nonpayable",
      "type": "constructor"
    },
    {
      "anonymous": false,
      "inputs": [
        {
          "indexed": true,
          "name": "from",
          "type": "address"
        },
        {
          "indexed": true,
          "name": "to",
          "type": "address"
        },
        {
          "indexed": false,
          "name": "value",
          "type": "uint256"
        }
      ],
      "name": "Transfer",
      "type": "event"
    },
    {
      "anonymous": false,
      "inputs": [
        {
          "indexed": true,
          "name": "owner",
          "type": "address"
        },
        {
          "indexed": true,
          "name": "spender",
          "type": "address"
        },
        {
          "indexed": false,
          "name": "value",
          "type": "uint256"
        }
      ],
      "name": "Approval",
      "type": "event"
    }
  ],
  "bytecode": "0x60806040523480156200001157600080fd5b50604051620010e8380380620010e8833981018060405260a08110156200003757600080fd5b8101908080516401000000008111156200005057600080fd5b820160208101848111156200006457600080fd5b81516401000000008111828201871017156200007f57600080fd5b505092919060200180516401000000008111156200009c57600080fd5b82016020810184811115620000b057600080fd5b8151640100000000811182820187101715620000cb57600080fd5b50506020808301516040840151606090940151875193965090945091869186918691620000fe91600391860190620002e9565b50815162000114906004906020850190620002e9565b506005805460ff191660ff929092169190911790555062000141905082826401000000006200014c810204565b50505050506200038e565b600160a060020a0382161515620001c457604080517f08c379a000000000000000000000000000000000000000000000000000000000815260206004820152601f60248201527f45524332303a206d696e7420746f20746865207a65726f206164647265737300604482015290519081900360640190fd5b600254620001e1908264010000000062000cba6200026d82021704565b600255600160a060020a03821660009081526020819052604090205462000217908264010000000062000cba6200026d82021704565b600160a060020a0383166000818152602081815260408083209490945583518581529351929391927fddf252ad1be2c89b69c2b068fc378daa952ba7f163c4a11628f55a4df523b3ef9281900390910190a35050565b600082820183811015620002e257604080517f08c379a000000000000000000000000000000000000000000000000000000000815260206004820152601b60248201527f536166654d6174683a206164646974696f6e206f766572666c6f770000000000604482015290519081900360640190fd5b9392505050565b828054600181600116156101000203166002900490600052602060002090601f016020900481019282601f106200032c57805160ff19168380011785556200035c565b828001600101855582156200035c579182015b828111156200035c5782518255916020019190600101906200033f565b506200036a9291506200036e565b5090565b6200038b91905b808211156200036a576000815560010162000375565b90565b610d4a806200039e6000396000f3fe6080604052600436106100b95763ffffffff7c010000000000000000000000000000000000000000000000000000000060003504166306fdde0381146100be578063095ea7b31461014857806318160ddd1461019557806323b872dd146101bc578063313ce567146101ff578063395093511461022a57806370a082311461026357806395d89b4114610296578063a457c2d7146102ab578063a9059cbb146102e4578063c558ae6b1461031d578063dd62ed3e146103ee575b600080fd5b3480156100ca57600080fd5b506100d3610429565b6040805160208082528351818301528351919283929083019185019080838360005b8381101561010d5781810151838201526020016100f5565b50505050905090810190601f16801561013a5780820380516001836020036101000a031916815260200191505b509250505060405180910390f35b34801561015457600080fd5b506101816004803603604081101561016b57600080fd5b50600160a060020a0381351690602001356104bf565b604080519115158252519081900360200190f35b3480156101a157600080fd5b506101aa6104dc565b60408051918252519081900360200190f35b3480156101c857600080fd5b50610181600480360360608110156101df57600080fd5b50600160a060020a038135811691602081013590911690604001356104e2565b34801561020b57600080fd5b506102146105c1565b6040805160ff9092168252519081900360200190f35b34801561023657600080fd5b506101816004803603604081101561024d57600080fd5b50600160a060020a0381351690602001356105ca565b34801561026f57600080fd5b506101aa6004803603602081101561028657600080fd5b5035600160a060020a031661061e565b3480156102a257600080fd5b506100d3610639565b3480156102b757600080fd5b50610181600480360360408110156102ce57600080fd5b50600160a060020a03813516906020013561069a565b3480156102f057600080fd5b506101816004803603604081101561030757600080fd5b50600160a060020a03813516906020013561074c565b34801561032957600080fd5b506103ec6004803603604081101561034057600080fd5b81019060208101813564010000000081111561035b57600080fd5b82018360208201111561036d57600080fd5b8035906020019184602083028401116401000000008311171561038f57600080fd5b9193909290916020810190356401000000008111156103ad57600080fd5b8201836020820111156103bf57600080fd5b803590602001918460208302840111640100000000831117156103e157600080fd5b509092509050610760565b005b3480156103fa57600080fd5b506101aa6004803603604081101561041157600080fd5b50600160a060020a0381358116916020013516610863565b60038054604080516020601f60026000196101006001881615020190951694909404938401819004810282018101909252828152606093909290918301828280156104b55780601f1061048a576101008083540402835291602001916104b5565b820191906000526020600020905b81548152906001019060200180831161049857829003601f168201915b5050505050905090565b60006104d36104cc61088e565b8484610892565b50600192915050565b60025490565b60006104ef8484846109ff565b6105b7846104fb61088e565b6105b285606060405190810160405280602881526020017f45524332303a207472616e7366657220616d6f756e742065786365656473206181526020017f6c6c6f77616e6365000000000000000000000000000000000000000000000000815250600160008b600160a060020a0316600160a060020a03168152602001908152602001600020600061058b61088e565b600160a060020a03168152602081019190915260400160002054919063ffffffff610c2016565b610892565b5060019392505050565b60055460ff1690565b60006104d36105d761088e565b846105b285600160006105e861088e565b600160a060020a03908116825260208083019390935260409182016000908120918c16815292529020549063ffffffff610cba16565b600160a060020a031660009081526020819052604090205490565b60048054604080516020601f60026000196101006001881615020190951694909404938401819004810282018101909252828152606093909290918301828280156104b55780601f1061048a576101008083540402835291602001916104b5565b60006104d36106a761088e565b846105b285606060405190810160405280602581526020017f45524332303a2064656372656173656420616c6c6f77616e63652062656c6f7781526020017f207a65726f0000000000000000000000000000000000000000000000000000008152506001600061071561088e565b600160a060020a03908116825260208083019390935260409182016000908120918d1681529252902054919063ffffffff610c2016565b60006104d361075961088e565b84846109ff565b600083116107b8576040805160e560020a62461bcd02815260206004820152601b60248201527f6e656564206174206c65617374206f6e6520726563697069656e740000000000604482015290519081900360640190fd5b82811461080f576040805160e560020a62461bcd02815260206004820152601c60248201527f726563697069656e74732e6c656e20213d2076616c7565732e6c656e00000000604482015290519081900360640190fd5b60005b8381101561085c5761085385858381811061082957fe5b90506020020135600160a060020a0316848484818110151561084757fe5b9050602002013561074c565b50600101610812565b5050505050565b600160a060020a03918216600090815260016020908152604080832093909416825291909152205490565b3390565b600160a060020a0383161515610917576040805160e560020a62461bcd028152602060048201526024808201527f45524332303a20617070726f76652066726f6d20746865207a65726f2061646460448201527f7265737300000000000000000000000000000000000000000000000000000000606482015290519081900360840190fd5b600160a060020a038216151561099d576040805160e560020a62461bcd02815260206004820152602260248201527f45524332303a20617070726f766520746f20746865207a65726f20616464726560448201527f7373000000000000000000000000000000000000000000000000000000000000606482015290519081900360840190fd5b600160a060020a03808416600081815260016020908152604080832094871680845294825291829020859055815185815291517f8c5be1e5ebec7d5bd14f71427d1e84f3dd0314c0f7b2291e5b200ac8c7c3b9259281900390910190a3505050565b600160a060020a0383161515610a85576040805160e560020a62461bcd02815260206004820152602560248201527f45524332303a207472616e736665722066726f6d20746865207a65726f20616460448201527f6472657373000000000000000000000000000000000000000000000000000000606482015290519081900360840190fd5b600160a060020a0382161515610b0b576040805160e560020a62461bcd02815260206004820152602360248201527f45524332303a207472616e7366657220746f20746865207a65726f206164647260448201527f6573730000000000000000000000000000000000000000000000000000000000606482015290519081900360840190fd5b60408051606081018252602681527f45524332303a207472616e7366657220616d6f756e74206578636565647320626020808301919091527f616c616e6365000000000000000000000000000000000000000000000000000082840152600160a060020a0386166000908152908190529190912054610b9191839063ffffffff610c2016565b600160a060020a038085166000908152602081905260408082209390935590841681522054610bc6908263ffffffff610cba16565b600160a060020a038084166000818152602081815260409182902094909455805185815290519193928716927fddf252ad1be2c89b69c2b068fc378daa952ba7f163c4a11628f55a4df523b3ef92918290030190a3505050565b60008184841115610cb25760405160e560020a62461bcd0281526004018080602001828103825283818151815260200191508051906020019080838360005b83811015610c77578181015183820152602001610c5f565b50505050905090810190601f168015610ca45780820380516001836020036101000a031916815260200191505b509250505060405180910390fd5b505050900390565b600082820183811015610d17576040805160e560020a62461bcd02815260206004820152601b60248201527f536166654d6174683a206164646974696f6e206f766572666c6f770000000000604482015290519081900360640190fd5b939250505056fea165627a7a723058207691c93897a31fd163fb41aaed34fa6a22e3b6360ac69d3b033fea92a5d784e40029",
  "linkReferences": {},
  "deployedLinkReferences": {}
}