{
  "_format": "hh-sol-artifact-1",
  "contractName": "BaseToken_U_A",
  "sourceName": "contracts/BaseToken/Flatten.sol",
  "abi": [
    {
      "inputs": [
        {
          "internalType": "string",
          "name": "_name",
          "type": "string"
        },
        {
          "internalType": "string",
          "name": "_symbol",
          "type": "string"
        },
        {
          "internalType": "uint8",
          "name": "_decimals",
          "type": "uint8"
        },
        {
          "internalType": "uint256",
          "name": "_initial",
          "type": "uint256"
        }
      ],
      "stateMutability": "nonpayable",
      "type": "constructor"
    },
    {
      "anonymous": false,
      "inputs": [
        {
          "indexed": true,
          "internalType": "address",
          "name": "owner",
          "type": "address"
        },
        {
          "indexed": true,
          "internalType": "address",
          "name": "spender",
          "type": "address"
        },
        {
          "indexed": false,
          "internalType": "uint256",
          "name": "value",
          "type": "uint256"
        }
      ],
      "name": "Approval",
      "type": "event"
    },
    {
      "anonymous": false,
      "inputs": [],
      "name": "MintFinished",
      "type": "event"
    },
    {
      "anonymous": false,
      "inputs": [
        {
          "indexed": true,
          "internalType": "address",
          "name": "previousOwner",
          "type": "address"
        },
        {
          "indexed": true,
          "internalType": "address",
          "name": "newOwner",
          "type": "address"
        }
      ],
      "name": "OwnershipTransferred",
      "type": "event"
    },
    {
      "anonymous": false,
      "inputs": [
        {
          "indexed": true,
          "internalType": "address",
          "name": "from",
          "type": "address"
        },
        {
          "indexed": true,
          "internalType": "address",
          "name": "to",
          "type": "address"
        },
        {
          "indexed": false,
          "internalType": "uint256",
          "name": "value",
          "type": "uint256"
        }
      ],
      "name": "Transfer",
      "type": "event"
    },
    {
      "inputs": [
        {
          "internalType": "address[]",
          "name": "_recipients",
          "type": "address[]"
        },
        {
          "internalType": "uint256[]",
          "name": "_values",
          "type": "uint256[]"
        }
      ],
      "name": "Airdrop",
      "outputs": [],
      "stateMutability": "nonpayable",
      "type": "function"
    },
    {
      "inputs": [
        {
          "internalType": "address",
          "name": "owner",
          "type": "address"
        },
        {
          "internalType": "address",
          "name": "spender",
          "type": "address"
        }
      ],
      "name": "allowance",
      "outputs": [
        {
          "internalType": "uint256",
          "name": "",
          "type": "uint256"
        }
      ],
      "stateMutability": "view",
      "type": "function"
    },
    {
      "inputs": [
        {
          "internalType": "address",
          "name": "spender",
          "type": "address"
        },
        {
          "internalType": "uint256",
          "name": "amount",
          "type": "uint256"
        }
      ],
      "name": "approve",
      "outputs": [
        {
          "internalType": "bool",
          "name": "",
          "type": "bool"
        }
      ],
      "stateMutability": "nonpayable",
      "type": "function"
    },
    {
      "inputs": [
        {
          "internalType": "address",
          "name": "account",
          "type": "address"
        }
      ],
      "name": "balanceOf",
      "outputs": [
        {
          "internalType": "uint256",
          "name": "",
          "type": "uint256"
        }
      ],
      "stateMutability": "view",
      "type": "function"
    },
    {
      "inputs": [
        {
          "internalType": "uint256",
          "name": "amount",
          "type": "uint256"
        }
      ],
      "name": "burn",
      "outputs": [],
      "stateMutability": "nonpayable",
      "type": "function"
    },
    {
      "inputs": [
        {
          "internalType": "address",
          "name": "account",
          "type": "address"
        },
        {
          "internalType": "uint256",
          "name": "amount",
          "type": "uint256"
        }
      ],
      "name": "burnFrom",
      "outputs": [],
      "stateMutability": "nonpayable",
      "type": "function"
    },
    {
      "inputs": [],
      "name": "decimals",
      "outputs": [
        {
          "internalType": "uint8",
          "name": "",
          "type": "uint8"
        }
      ],
      "stateMutability": "view",
      "type": "function"
    },
    {
      "inputs": [
        {
          "internalType": "address",
          "name": "spender",
          "type": "address"
        },
        {
          "internalType": "uint256",
          "name": "subtractedValue",
          "type": "uint256"
        }
      ],
      "name": "decreaseAllowance",
      "outputs": [
        {
          "internalType": "bool",
          "name": "",
          "type": "bool"
        }
      ],
      "stateMutability": "nonpayable",
      "type": "function"
    },
    {
      "inputs": [],
      "name": "finishMinting",
      "outputs": [],
      "stateMutability": "nonpayable",
      "type": "function"
    },
    {
      "inputs": [],
      "name": "getTokenName",
      "outputs": [
        {
          "internalType": "string",
          "name": "",
          "type": "string"
        }
      ],
      "stateMutability": "view",
      "type": "function"
    },
    {
      "inputs": [
        {
          "internalType": "address",
          "name": "spender",
          "type": "address"
        },
        {
          "internalType": "uint256",
          "name": "addedValue",
          "type": "uint256"
        }
      ],
      "name": "increaseAllowance",
      "outputs": [
        {
          "internalType": "bool",
          "name": "",
          "type": "bool"
        }
      ],
      "stateMutability": "nonpayable",
      "type": "function"
    },
    {
      "inputs": [
        {
          "internalType": "address",
          "name": "account",
          "type": "address"
        },
        {
          "internalType": "uint256",
          "name": "amount",
          "type": "uint256"
        }
      ],
      "name": "mint",
      "outputs": [],
      "stateMutability": "nonpayable",
      "type": "function"
    },
    {
      "inputs": [],
      "name": "mintingFinished",
      "outputs": [
        {
          "internalType": "bool",
          "name": "",
          "type": "bool"
        }
      ],
      "stateMutability": "view",
      "type": "function"
    },
    {
      "inputs": [],
      "name": "name",
      "outputs": [
        {
          "internalType": "string",
          "name": "",
          "type": "string"
        }
      ],
      "stateMutability": "view",
      "type": "function"
    },
    {
      "inputs": [],
      "name": "owner",
      "outputs": [
        {
          "internalType": "address",
          "name": "",
          "type": "address"
        }
      ],
      "stateMutability": "view",
      "type": "function"
    },
    {
      "inputs": [
        {
          "internalType": "address",
          "name": "tokenAddress",
          "type": "address"
        },
        {
          "internalType": "uint256",
          "name": "tokenAmount",
          "type": "uint256"
        }
      ],
      "name": "recoverToken",
      "outputs": [],
      "stateMutability": "nonpayable",
      "type": "function"
    },
    {
      "inputs": [],
      "name": "renounceOwnership",
      "outputs": [],
      "stateMutability": "nonpayable",
      "type": "function"
    },
    {
      "inputs": [],
      "name": "symbol",
      "outputs": [
        {
          "internalType": "string",
          "name": "",
          "type": "string"
        }
      ],
      "stateMutability": "view",
      "type": "function"
    },
    {
      "inputs": [],
      "name": "tokenName",
      "outputs": [
        {
          "internalType": "string",
          "name": "",
          "type": "string"
        }
      ],
      "stateMutability": "view",
      "type": "function"
    },
    {
      "inputs": [],
      "name": "totalSupply",
      "outputs": [
        {
          "internalType": "uint256",
          "name": "",
          "type": "uint256"
        }
      ],
      "stateMutability": "view",
      "type": "function"
    },
    {
      "inputs": [
        {
          "internalType": "address",
          "name": "recipient",
          "type": "address"
        },
        {
          "internalType": "uint256",
          "name": "amount",
          "type": "uint256"
        }
      ],
      "name": "transfer",
      "outputs": [
        {
          "internalType": "bool",
          "name": "",
          "type": "bool"
        }
      ],
      "stateMutability": "nonpayable",
      "type": "function"
    },
    {
      "inputs": [
        {
          "internalType": "address",
          "name": "sender",
          "type": "address"
        },
        {
          "internalType": "address",
          "name": "recipient",
          "type": "address"
        },
        {
          "internalType": "uint256",
          "name": "amount",
          "type": "uint256"
        }
      ],
      "name": "transferFrom",
      "outputs": [
        {
          "internalType": "bool",
          "name": "",
          "type": "bool"
        }
      ],
      "stateMutability": "nonpayable",
      "type": "function"
    },
    {
      "inputs": [
        {
          "internalType": "address",
          "name": "newOwner",
          "type": "address"
        }
      ],
      "name": "transferOwnership",
      "outputs": [],
      "stateMutability": "nonpayable",
      "type": "function"
    }
  ],
  "bytecode": "0x60a06040526005805460ff191690553480156200001b57600080fd5b5060405162001b3d38038062001b3d8339810160408190526200003e91620003fc565b6040518060400160405280600d81526020016c42617365546f6b656e5f555f4160981b81525082858581600390805190602001906200007f929190620002ab565b50805162000095906004906020840190620002ab565b50505060f81b7fff00000000000000000000000000000000000000000000000000000000000000166080526000620000cc62000159565b60058054610100600160a81b0319166101006001600160a01b03841690810291909117909155604051919250906000907f8be0079c531659141344cd1fd0a4f28419497f9722a3daafe3b4186f6b6457e0908290a350805162000137906006906020840190620002ab565b506200014f90506200014862000159565b826200015d565b5050505062000580565b3390565b6200016762000159565b6001600160a01b03166200017a620001c7565b6001600160a01b031614620001ac5760405162461bcd60e51b8152600401620001a39062000483565b60405180910390fd5b620001c38282620001db60201b620009e71760201c565b5050565b60055461010090046001600160a01b031690565b6001600160a01b038216620002045760405162461bcd60e51b8152600401620001a390620004c8565b6200021260008383620002a6565b806002600082825462000226919062000508565b90915550506001600160a01b038216600090815260208190526040812080548392906200025590849062000508565b90915550506040516001600160a01b038316906000907fddf252ad1be2c89b69c2b068fc378daa952ba7f163c4a11628f55a4df523b3ef906200029a908590620004ff565b60405180910390a35050565b505050565b828054620002b9906200052d565b90600052602060002090601f016020900481019282620002dd576000855562000328565b82601f10620002f857805160ff191683800117855562000328565b8280016001018555821562000328579182015b82811115620003285782518255916020019190600101906200030b565b50620003369291506200033a565b5090565b5b808211156200033657600081556001016200033b565b600082601f83011262000362578081fd5b81516001600160401b03808211156200037f576200037f6200056a565b6040516020601f8401601f1916820181018381118382101715620003a757620003a76200056a565b6040528382528584018101871015620003be578485fd5b8492505b83831015620003e15785830181015182840182015291820191620003c2565b83831115620003f257848185840101525b5095945050505050565b6000806000806080858703121562000412578384fd5b84516001600160401b038082111562000429578586fd5b620004378883890162000351565b955060208701519150808211156200044d578485fd5b506200045c8782880162000351565b935050604085015160ff8116811462000473578283fd5b6060959095015193969295505050565b60208082526025908201527f45524332304f776e61626c653a2063616c6c6572206973206e6f74207468652060408201526437bbb732b960d91b606082015260800190565b6020808252601f908201527f45524332303a206d696e7420746f20746865207a65726f206164647265737300604082015260600190565b90815260200190565b600082198211156200052857634e487b7160e01b81526011600452602481fd5b500190565b6002810460018216806200054257607f821691505b602082108114156200056457634e487b7160e01b600052602260045260246000fd5b50919050565b634e487b7160e01b600052604160045260246000fd5b60805160f81c61159e6200059f6000396000610c89015261159e6000f3fe608060405234801561001057600080fd5b506004361061014d5760003560e01c8063715018a6116100c3578063a457c2d71161007c578063a457c2d714610273578063a9059cbb14610286578063b29a814014610299578063c558ae6b146102ac578063dd62ed3e146102bf578063f2fde38b146102d25761014d565b8063715018a61461022b57806379cc6790146102335780637d64bcb414610246578063862b092b1461024e5780638da5cb5b1461025657806395d89b411461026b5761014d565b8063313ce56711610115578063313ce567146101c057806339509351146101d557806340c10f19146101e857806342966c68146101fd5780636c02a9311461021057806370a08231146102185761014d565b806305d2035b1461015257806306fdde0314610170578063095ea7b31461018557806318160ddd1461019857806323b872dd146101ad575b600080fd5b61015a6102e5565b6040516101679190611039565b60405180910390f35b6101786102ee565b6040516101679190611044565b61015a610193366004610f42565b610380565b6101a061039d565b60405161016791906114b6565b61015a6101bb366004610f07565b6103a3565b6101c8610443565b60405161016791906114bf565b61015a6101e3366004610f42565b610452565b6101fb6101f6366004610f42565b6104a1565b005b6101fb61020b366004610ff4565b6104d2565b6101786104e6565b6101a0610226366004610eb4565b610574565b6101fb610593565b6101fb610241366004610f42565b610622565b6101fb610677565b6101786106a4565b61025e6106b3565b604051610167919061100c565b6101786106c7565b61015a610281366004610f42565b6106d6565b61015a610294366004610f42565b610751565b6101fb6102a7366004610f42565b610765565b6101fb6102ba366004610f6b565b61082b565b6101a06102cd366004610ed5565b6108f0565b6101fb6102e0366004610eb4565b61091b565b60055460ff1690565b6060600380546102fd906114fc565b80601f0160208091040260200160405190810160405280929190818152602001828054610329906114fc565b80156103765780601f1061034b57610100808354040283529160200191610376565b820191906000526020600020905b81548152906001019060200180831161035957829003601f168201915b5050505050905090565b600061039461038d610aa7565b8484610aab565b50600192915050565b60025490565b60006103b0848484610b5f565b6001600160a01b0384166000908152600160205260408120816103d1610aa7565b6001600160a01b03166001600160a01b031681526020019081526020016000205490508281101561041d5760405162461bcd60e51b81526004016104149061126b565b60405180910390fd5b61043885610429610aa7565b61043386856114e5565b610aab565b506001949350505050565b600061044d610c87565b905090565b600061039461045f610aa7565b84846001600061046d610aa7565b6001600160a01b03908116825260208083019390935260409182016000908120918b168152925290205461043391906114cd565b60055460ff16156104c45760405162461bcd60e51b8152600401610414906113f8565b6104ce8282610cab565b5050565b6104e36104dd610aa7565b82610cf4565b50565b600680546104f3906114fc565b80601f016020809104026020016040519081016040528092919081815260200182805461051f906114fc565b801561056c5780601f106105415761010080835404028352916020019161056c565b820191906000526020600020905b81548152906001019060200180831161054f57829003601f168201915b505050505081565b6001600160a01b0381166000908152602081905260409020545b919050565b61059b610aa7565b6001600160a01b03166105ac6106b3565b6001600160a01b0316146105d25760405162461bcd60e51b815260040161041490611226565b60055460405160009161010090046001600160a01b0316907f8be0079c531659141344cd1fd0a4f28419497f9722a3daafe3b4186f6b6457e0908390a360058054610100600160a81b0319169055565b6000610630836102cd610aa7565b9050818110156106525760405162461bcd60e51b8152600401610414906112b3565b6106688361065e610aa7565b61043385856114e5565b6106728383610cf4565b505050565b60055460ff161561069a5760405162461bcd60e51b8152600401610414906113f8565b6106a2610dda565b565b6060600680546102fd906114fc565b60055461010090046001600160a01b031690565b6060600480546102fd906114fc565b600080600160006106e5610aa7565b6001600160a01b03908116825260208083019390935260409182016000908120918816815292529020549050828110156107315760405162461bcd60e51b81526004016104149061143a565b61074761073c610aa7565b8561043386856114e5565b5060019392505050565b600061039461075e610aa7565b8484610b5f565b61076d610aa7565b6001600160a01b031661077e6106b3565b6001600160a01b0316146107a45760405162461bcd60e51b815260040161041490611226565b816001600160a01b031663a9059cbb6107bb6106b3565b836040518363ffffffff1660e01b81526004016107d9929190611020565b602060405180830381600087803b1580156107f357600080fd5b505af1158015610807573d6000803e3d6000fd5b505050506040513d601f19601f820116820180604052508101906106729190610fd4565b826108485760405162461bcd60e51b8152600401610414906112f7565b8281146108675760405162461bcd60e51b8152600401610414906111a4565b60005b838110156108e9576108d685858381811061089557634e487b7160e01b600052603260045260246000fd5b90506020020160208101906108aa9190610eb4565b8484848181106108ca57634e487b7160e01b600052603260045260246000fd5b90506020020135610751565b50806108e181611537565b91505061086a565b5050505050565b6001600160a01b03918216600090815260016020908152604080832093909416825291909152205490565b610923610aa7565b6001600160a01b03166109346106b3565b6001600160a01b03161461095a5760405162461bcd60e51b815260040161041490611226565b6001600160a01b0381166109805760405162461bcd60e51b8152600401610414906111db565b6005546040516001600160a01b0380841692610100900416907f8be0079c531659141344cd1fd0a4f28419497f9722a3daafe3b4186f6b6457e090600090a3600580546001600160a01b0390921661010002610100600160a81b0319909216919091179055565b6001600160a01b038216610a0d5760405162461bcd60e51b81526004016104149061147f565b610a1960008383610672565b8060026000828254610a2b91906114cd565b90915550506001600160a01b03821660009081526020819052604081208054839290610a589084906114cd565b90915550506040516001600160a01b038316906000907fddf252ad1be2c89b69c2b068fc378daa952ba7f163c4a11628f55a4df523b3ef90610a9b9085906114b6565b60405180910390a35050565b3390565b6001600160a01b038316610ad15760405162461bcd60e51b8152600401610414906113b4565b6001600160a01b038216610af75760405162461bcd60e51b81526004016104149061111c565b6001600160a01b0380841660008181526001602090815260408083209487168084529490915290819020849055517f8c5be1e5ebec7d5bd14f71427d1e84f3dd0314c0f7b2291e5b200ac8c7c3b92590610b529085906114b6565b60405180910390a3505050565b6001600160a01b038316610b855760405162461bcd60e51b81526004016104149061136f565b6001600160a01b038216610bab5760405162461bcd60e51b815260040161041490611097565b610bb6838383610672565b6001600160a01b03831660009081526020819052604090205481811015610bef5760405162461bcd60e51b81526004016104149061115e565b610bf982826114e5565b6001600160a01b038086166000908152602081905260408082209390935590851681529081208054849290610c2f9084906114cd565b92505081905550826001600160a01b0316846001600160a01b03167fddf252ad1be2c89b69c2b068fc378daa952ba7f163c4a11628f55a4df523b3ef84604051610c7991906114b6565b60405180910390a350505050565b7f000000000000000000000000000000000000000000000000000000000000000090565b610cb3610aa7565b6001600160a01b0316610cc46106b3565b6001600160a01b031614610cea5760405162461bcd60e51b815260040161041490611226565b6104ce82826109e7565b6001600160a01b038216610d1a5760405162461bcd60e51b81526004016104149061132e565b610d2682600083610672565b6001600160a01b03821660009081526020819052604090205481811015610d5f5760405162461bcd60e51b8152600401610414906110da565b610d6982826114e5565b6001600160a01b03841660009081526020819052604081209190915560028054849290610d979084906114e5565b90915550506040516000906001600160a01b038516907fddf252ad1be2c89b69c2b068fc378daa952ba7f163c4a11628f55a4df523b3ef90610b529086906114b6565b610de2610aa7565b6001600160a01b0316610df36106b3565b6001600160a01b031614610e195760405162461bcd60e51b815260040161041490611226565b6106a26005805460ff191660011790556040517fae5184fba832cb2b1f702aca6117b8d265eaf03ad33eb133f19dde0f5920fa0890600090a1565b80356001600160a01b038116811461058e57600080fd5b60008083601f840112610e7c578182fd5b50813567ffffffffffffffff811115610e93578182fd5b6020830191508360208083028501011115610ead57600080fd5b9250929050565b600060208284031215610ec5578081fd5b610ece82610e54565b9392505050565b60008060408385031215610ee7578081fd5b610ef083610e54565b9150610efe60208401610e54565b90509250929050565b600080600060608486031215610f1b578081fd5b610f2484610e54565b9250610f3260208501610e54565b9150604084013590509250925092565b60008060408385031215610f54578182fd5b610f5d83610e54565b946020939093013593505050565b60008060008060408587031215610f80578081fd5b843567ffffffffffffffff80821115610f97578283fd5b610fa388838901610e6b565b90965094506020870135915080821115610fbb578283fd5b50610fc887828801610e6b565b95989497509550505050565b600060208284031215610fe5578081fd5b81518015158114610ece578182fd5b600060208284031215611005578081fd5b5035919050565b6001600160a01b0391909116815260200190565b6001600160a01b03929092168252602082015260400190565b901515815260200190565b6000602080835283518082850152825b8181101561107057858101830151858201604001528201611054565b818111156110815783604083870101525b50601f01601f1916929092016040019392505050565b60208082526023908201527f45524332303a207472616e7366657220746f20746865207a65726f206164647260408201526265737360e81b606082015260800190565b60208082526022908201527f45524332303a206275726e20616d6f756e7420657863656564732062616c616e604082015261636560f01b606082015260800190565b60208082526022908201527f45524332303a20617070726f766520746f20746865207a65726f206164647265604082015261737360f01b606082015260800190565b60208082526026908201527f45524332303a207472616e7366657220616d6f756e7420657863656564732062604082015265616c616e636560d01b606082015260800190565b6020808252601c908201527f726563697069656e74732e6c656e20213d2076616c7565732e6c656e00000000604082015260600190565b6020808252602b908201527f45524332304f776e61626c653a206e6577206f776e657220697320746865207a60408201526a65726f206164647265737360a81b606082015260800190565b60208082526025908201527f45524332304f776e61626c653a2063616c6c6572206973206e6f74207468652060408201526437bbb732b960d91b606082015260800190565b60208082526028908201527f45524332303a207472616e7366657220616d6f756e74206578636565647320616040820152676c6c6f77616e636560c01b606082015260800190565b60208082526024908201527f45524332303a206275726e20616d6f756e74206578636565647320616c6c6f77604082015263616e636560e01b606082015260800190565b6020808252601b908201527f6e656564206174206c65617374206f6e6520726563697069656e740000000000604082015260600190565b60208082526021908201527f45524332303a206275726e2066726f6d20746865207a65726f206164647265736040820152607360f81b606082015260800190565b60208082526025908201527f45524332303a207472616e736665722066726f6d20746865207a65726f206164604082015264647265737360d81b606082015260800190565b60208082526024908201527f45524332303a20617070726f76652066726f6d20746865207a65726f206164646040820152637265737360e01b606082015260800190565b60208082526022908201527f45524332304d696e7461626c653a206d696e74696e672069732066696e697368604082015261195960f21b606082015260800190565b60208082526025908201527f45524332303a2064656372656173656420616c6c6f77616e63652062656c6f77604082015264207a65726f60d81b606082015260800190565b6020808252601f908201527f45524332303a206d696e7420746f20746865207a65726f206164647265737300604082015260600190565b90815260200190565b60ff91909116815260200190565b600082198211156114e0576114e0611552565b500190565b6000828210156114f7576114f7611552565b500390565b60028104600182168061151057607f821691505b6020821081141561153157634e487b7160e01b600052602260045260246000fd5b50919050565b600060001982141561154b5761154b611552565b5060010190565b634e487b7160e01b600052601160045260246000fdfea2646970667358221220792334bf5ae1c67298d3f1181fa84a5a69057997dfc672348b8134a807b4130d64736f6c63430008000033",
  "linkReferences": {},
  "deployedLinkReferences": {}
}