{
  "_format": "hh-sol-artifact-1",
  "contractName": "TokenRecover",
  "sourceName": "contracts/BaseToken/Flatten.sol",
  "abi": [
    {
      "anonymous": false,
      "inputs": [
        {
          "indexed": true,
          "internalType": "address",
          "name": "previousOwner",
          "type": "address"
        },
        {
          "indexed": true,
          "internalType": "address",
          "name": "newOwner",
          "type": "address"
        }
      ],
      "name": "OwnershipTransferred",
      "type": "event"
    },
    {
      "inputs": [],
      "name": "owner",
      "outputs": [
        {
          "internalType": "address",
          "name": "",
          "type": "address"
        }
      ],
      "stateMutability": "view",
      "type": "function"
    },
    {
      "inputs": [
        {
          "internalType": "address",
          "name": "tokenAddress",
          "type": "address"
        },
        {
          "internalType": "uint256",
          "name": "tokenAmount",
          "type": "uint256"
        }
      ],
      "name": "recoverToken",
      "outputs": [],
      "stateMutability": "nonpayable",
      "type": "function"
    },
    {
      "inputs": [],
      "name": "renounceOwnership",
      "outputs": [],
      "stateMutability": "nonpayable",
      "type": "function"
    },
    {
      "inputs": [
        {
          "internalType": "address",
          "name": "newOwner",
          "type": "address"
        }
      ],
      "name": "transferOwnership",
      "outputs": [],
      "stateMutability": "nonpayable",
      "type": "function"
    }
  ],
  "bytecode": "0x608060405234801561001057600080fd5b50600061001b61006a565b600080546001600160a01b0319166001600160a01b0383169081178255604051929350917f8be0079c531659141344cd1fd0a4f28419497f9722a3daafe3b4186f6b6457e0908290a35061006e565b3390565b6104488061007d6000396000f3fe608060405234801561001057600080fd5b506004361061004c5760003560e01c8063715018a6146100515780638da5cb5b1461005b578063b29a814014610079578063f2fde38b1461008c575b600080fd5b61005961009f565b005b610063610131565b6040516100709190610355565b60405180910390f35b61005961008736600461030c565b610140565b61005961009a3660046102eb565b61020b565b6100a76102cb565b6001600160a01b03166100b8610131565b6001600160a01b0316146100e75760405162461bcd60e51b81526004016100de906103cd565b60405180910390fd5b600080546040516001600160a01b03909116907f8be0079c531659141344cd1fd0a4f28419497f9722a3daafe3b4186f6b6457e0908390a3600080546001600160a01b0319169055565b6000546001600160a01b031690565b6101486102cb565b6001600160a01b0316610159610131565b6001600160a01b03161461017f5760405162461bcd60e51b81526004016100de906103cd565b816001600160a01b031663a9059cbb610196610131565b836040518363ffffffff1660e01b81526004016101b4929190610369565b602060405180830381600087803b1580156101ce57600080fd5b505af11580156101e2573d6000803e3d6000fd5b505050506040513d601f19601f820116820180604052508101906102069190610335565b505050565b6102136102cb565b6001600160a01b0316610224610131565b6001600160a01b03161461024a5760405162461bcd60e51b81526004016100de906103cd565b6001600160a01b0381166102705760405162461bcd60e51b81526004016100de90610382565b600080546040516001600160a01b03808516939216917f8be0079c531659141344cd1fd0a4f28419497f9722a3daafe3b4186f6b6457e091a3600080546001600160a01b0319166001600160a01b0392909216919091179055565b3390565b80356001600160a01b03811681146102e657600080fd5b919050565b6000602082840312156102fc578081fd5b610305826102cf565b9392505050565b6000806040838503121561031e578081fd5b610327836102cf565b946020939093013593505050565b600060208284031215610346578081fd5b81518015158114610305578182fd5b6001600160a01b0391909116815260200190565b6001600160a01b03929092168252602082015260400190565b6020808252602b908201527f45524332304f776e61626c653a206e6577206f776e657220697320746865207a60408201526a65726f206164647265737360a81b606082015260800190565b60208082526025908201527f45524332304f776e61626c653a2063616c6c6572206973206e6f74207468652060408201526437bbb732b960d91b60608201526080019056fea2646970667358221220cde985d2617361391c8be92c6df2287ea50a29dffdf7df218b028b8e4eb545c764736f6c63430008000033",
  "linkReferences": {},
  "deployedLinkReferences": {}
}