{
  "_format": "hh-sol-artifact-1",
  "contractName": "BaseToken_U",
  "sourceName": "contracts/BaseToken/BaseToken_U.sol",
  "abi": [
    {
      "inputs": [
        {
          "internalType": "string",
          "name": "_name",
          "type": "string"
        },
        {
          "internalType": "string",
          "name": "_symbol",
          "type": "string"
        },
        {
          "internalType": "uint8",
          "name": "_decimals",
          "type": "uint8"
        },
        {
          "internalType": "uint256",
          "name": "_initial",
          "type": "uint256"
        }
      ],
      "stateMutability": "nonpayable",
      "type": "constructor"
    },
    {
      "anonymous": false,
      "inputs": [
        {
          "indexed": true,
          "internalType": "address",
          "name": "owner",
          "type": "address"
        },
        {
          "indexed": true,
          "internalType": "address",
          "name": "spender",
          "type": "address"
        },
        {
          "indexed": false,
          "internalType": "uint256",
          "name": "value",
          "type": "uint256"
        }
      ],
      "name": "Approval",
      "type": "event"
    },
    {
      "anonymous": false,
      "inputs": [],
      "name": "MintFinished",
      "type": "event"
    },
    {
      "anonymous": false,
      "inputs": [
        {
          "indexed": true,
          "internalType": "address",
          "name": "previousOwner",
          "type": "address"
        },
        {
          "indexed": true,
          "internalType": "address",
          "name": "newOwner",
          "type": "address"
        }
      ],
      "name": "OwnershipTransferred",
      "type": "event"
    },
    {
      "anonymous": false,
      "inputs": [
        {
          "indexed": true,
          "internalType": "address",
          "name": "from",
          "type": "address"
        },
        {
          "indexed": true,
          "internalType": "address",
          "name": "to",
          "type": "address"
        },
        {
          "indexed": false,
          "internalType": "uint256",
          "name": "value",
          "type": "uint256"
        }
      ],
      "name": "Transfer",
      "type": "event"
    },
    {
      "inputs": [
        {
          "internalType": "address",
          "name": "owner",
          "type": "address"
        },
        {
          "internalType": "address",
          "name": "spender",
          "type": "address"
        }
      ],
      "name": "allowance",
      "outputs": [
        {
          "internalType": "uint256",
          "name": "",
          "type": "uint256"
        }
      ],
      "stateMutability": "view",
      "type": "function"
    },
    {
      "inputs": [
        {
          "internalType": "address",
          "name": "spender",
          "type": "address"
        },
        {
          "internalType": "uint256",
          "name": "amount",
          "type": "uint256"
        }
      ],
      "name": "approve",
      "outputs": [
        {
          "internalType": "bool",
          "name": "",
          "type": "bool"
        }
      ],
      "stateMutability": "nonpayable",
      "type": "function"
    },
    {
      "inputs": [
        {
          "internalType": "address",
          "name": "account",
          "type": "address"
        }
      ],
      "name": "balanceOf",
      "outputs": [
        {
          "internalType": "uint256",
          "name": "",
          "type": "uint256"
        }
      ],
      "stateMutability": "view",
      "type": "function"
    },
    {
      "inputs": [
        {
          "internalType": "uint256",
          "name": "amount",
          "type": "uint256"
        }
      ],
      "name": "burn",
      "outputs": [],
      "stateMutability": "nonpayable",
      "type": "function"
    },
    {
      "inputs": [
        {
          "internalType": "address",
          "name": "account",
          "type": "address"
        },
        {
          "internalType": "uint256",
          "name": "amount",
          "type": "uint256"
        }
      ],
      "name": "burnFrom",
      "outputs": [],
      "stateMutability": "nonpayable",
      "type": "function"
    },
    {
      "inputs": [],
      "name": "decimals",
      "outputs": [
        {
          "internalType": "uint8",
          "name": "",
          "type": "uint8"
        }
      ],
      "stateMutability": "view",
      "type": "function"
    },
    {
      "inputs": [
        {
          "internalType": "address",
          "name": "spender",
          "type": "address"
        },
        {
          "internalType": "uint256",
          "name": "subtractedValue",
          "type": "uint256"
        }
      ],
      "name": "decreaseAllowance",
      "outputs": [
        {
          "internalType": "bool",
          "name": "",
          "type": "bool"
        }
      ],
      "stateMutability": "nonpayable",
      "type": "function"
    },
    {
      "inputs": [],
      "name": "finishMinting",
      "outputs": [],
      "stateMutability": "nonpayable",
      "type": "function"
    },
    {
      "inputs": [],
      "name": "getTokenName",
      "outputs": [
        {
          "internalType": "string",
          "name": "",
          "type": "string"
        }
      ],
      "stateMutability": "view",
      "type": "function"
    },
    {
      "inputs": [
        {
          "internalType": "address",
          "name": "spender",
          "type": "address"
        },
        {
          "internalType": "uint256",
          "name": "addedValue",
          "type": "uint256"
        }
      ],
      "name": "increaseAllowance",
      "outputs": [
        {
          "internalType": "bool",
          "name": "",
          "type": "bool"
        }
      ],
      "stateMutability": "nonpayable",
      "type": "function"
    },
    {
      "inputs": [
        {
          "internalType": "address",
          "name": "account",
          "type": "address"
        },
        {
          "internalType": "uint256",
          "name": "amount",
          "type": "uint256"
        }
      ],
      "name": "mint",
      "outputs": [],
      "stateMutability": "nonpayable",
      "type": "function"
    },
    {
      "inputs": [],
      "name": "mintingFinished",
      "outputs": [
        {
          "internalType": "bool",
          "name": "",
          "type": "bool"
        }
      ],
      "stateMutability": "view",
      "type": "function"
    },
    {
      "inputs": [],
      "name": "name",
      "outputs": [
        {
          "internalType": "string",
          "name": "",
          "type": "string"
        }
      ],
      "stateMutability": "view",
      "type": "function"
    },
    {
      "inputs": [],
      "name": "owner",
      "outputs": [
        {
          "internalType": "address",
          "name": "",
          "type": "address"
        }
      ],
      "stateMutability": "view",
      "type": "function"
    },
    {
      "inputs": [
        {
          "internalType": "address",
          "name": "tokenAddress",
          "type": "address"
        },
        {
          "internalType": "uint256",
          "name": "tokenAmount",
          "type": "uint256"
        }
      ],
      "name": "recoverToken",
      "outputs": [],
      "stateMutability": "nonpayable",
      "type": "function"
    },
    {
      "inputs": [],
      "name": "renounceOwnership",
      "outputs": [],
      "stateMutability": "nonpayable",
      "type": "function"
    },
    {
      "inputs": [],
      "name": "symbol",
      "outputs": [
        {
          "internalType": "string",
          "name": "",
          "type": "string"
        }
      ],
      "stateMutability": "view",
      "type": "function"
    },
    {
      "inputs": [],
      "name": "tokenName",
      "outputs": [
        {
          "internalType": "string",
          "name": "",
          "type": "string"
        }
      ],
      "stateMutability": "view",
      "type": "function"
    },
    {
      "inputs": [],
      "name": "totalSupply",
      "outputs": [
        {
          "internalType": "uint256",
          "name": "",
          "type": "uint256"
        }
      ],
      "stateMutability": "view",
      "type": "function"
    },
    {
      "inputs": [
        {
          "internalType": "address",
          "name": "recipient",
          "type": "address"
        },
        {
          "internalType": "uint256",
          "name": "amount",
          "type": "uint256"
        }
      ],
      "name": "transfer",
      "outputs": [
        {
          "internalType": "bool",
          "name": "",
          "type": "bool"
        }
      ],
      "stateMutability": "nonpayable",
      "type": "function"
    },
    {
      "inputs": [
        {
          "internalType": "address",
          "name": "sender",
          "type": "address"
        },
        {
          "internalType": "address",
          "name": "recipient",
          "type": "address"
        },
        {
          "internalType": "uint256",
          "name": "amount",
          "type": "uint256"
        }
      ],
      "name": "transferFrom",
      "outputs": [
        {
          "internalType": "bool",
          "name": "",
          "type": "bool"
        }
      ],
      "stateMutability": "nonpayable",
      "type": "function"
    },
    {
      "inputs": [
        {
          "internalType": "address",
          "name": "newOwner",
          "type": "address"
        }
      ],
      "name": "transferOwnership",
      "outputs": [],
      "stateMutability": "nonpayable",
      "type": "function"
    }
  ],
  "bytecode": "0x60a06040526005805460ff191690553480156200001b57600080fd5b506040516200191d3803806200191d8339810160408190526200003e91620003fa565b6040518060400160405280600b81526020016a42617365546f6b656e5f5560a81b81525082858581600390805190602001906200007d929190620002a9565b50805162000093906004906020840190620002a9565b50505060f81b7fff00000000000000000000000000000000000000000000000000000000000000166080526000620000ca62000157565b60058054610100600160a81b0319166101006001600160a01b03841690810291909117909155604051919250906000907f8be0079c531659141344cd1fd0a4f28419497f9722a3daafe3b4186f6b6457e0908290a350805162000135906006906020840190620002a9565b506200014d90506200014662000157565b826200015b565b505050506200057e565b3390565b6200016562000157565b6001600160a01b031662000178620001c5565b6001600160a01b031614620001aa5760405162461bcd60e51b8152600401620001a19062000481565b60405180910390fd5b620001c18282620001d960201b620009041760201c565b5050565b60055461010090046001600160a01b031690565b6001600160a01b038216620002025760405162461bcd60e51b8152600401620001a190620004c6565b6200021060008383620002a4565b806002600082825462000224919062000506565b90915550506001600160a01b038216600090815260208190526040812080548392906200025390849062000506565b90915550506040516001600160a01b038316906000907fddf252ad1be2c89b69c2b068fc378daa952ba7f163c4a11628f55a4df523b3ef9062000298908590620004fd565b60405180910390a35050565b505050565b828054620002b7906200052b565b90600052602060002090601f016020900481019282620002db576000855562000326565b82601f10620002f657805160ff191683800117855562000326565b8280016001018555821562000326579182015b828111156200032657825182559160200191906001019062000309565b506200033492915062000338565b5090565b5b8082111562000334576000815560010162000339565b600082601f83011262000360578081fd5b81516001600160401b03808211156200037d576200037d62000568565b6040516020601f8401601f1916820181018381118382101715620003a557620003a562000568565b6040528382528584018101871015620003bc578485fd5b8492505b83831015620003df5785830181015182840182015291820191620003c0565b83831115620003f057848185840101525b5095945050505050565b6000806000806080858703121562000410578384fd5b84516001600160401b038082111562000427578586fd5b62000435888389016200034f565b955060208701519150808211156200044b578485fd5b506200045a878288016200034f565b935050604085015160ff8116811462000471578283fd5b6060959095015193969295505050565b60208082526025908201527f45524332304f776e61626c653a2063616c6c6572206973206e6f74207468652060408201526437bbb732b960d91b606082015260800190565b6020808252601f908201527f45524332303a206d696e7420746f20746865207a65726f206164647265737300604082015260600190565b90815260200190565b600082198211156200052657634e487b7160e01b81526011600452602481fd5b500190565b6002810460018216806200054057607f821691505b602082108114156200056257634e487b7160e01b600052602260045260246000fd5b50919050565b634e487b7160e01b600052604160045260246000fd5b60805160f81c6113806200059d6000396000610ba601526113806000f3fe608060405234801561001057600080fd5b50600436106101425760003560e01c8063715018a6116100b857806395d89b411161007c57806395d89b4114610260578063a457c2d714610268578063a9059cbb1461027b578063b29a81401461028e578063dd62ed3e146102a1578063f2fde38b146102b457610142565b8063715018a61461022057806379cc6790146102285780637d64bcb41461023b578063862b092b146102435780638da5cb5b1461024b57610142565b8063313ce5671161010a578063313ce567146101b557806339509351146101ca57806340c10f19146101dd57806342966c68146101f25780636c02a9311461020557806370a082311461020d57610142565b806305d2035b1461014757806306fdde0314610165578063095ea7b31461017a57806318160ddd1461018d57806323b872dd146101a2575b600080fd5b61014f6102c7565b60405161015c9190610ea4565b60405180910390f35b61016d6102d0565b60405161015c9190610eaf565b61014f610188366004610e16565b610362565b61019561037f565b60405161015c91906112b3565b61014f6101b0366004610ddb565b610385565b6101bd610425565b60405161015c91906112bc565b61014f6101d8366004610e16565b610434565b6101f06101eb366004610e16565b610483565b005b6101f0610200366004610e5f565b6104b4565b61016d6104c8565b61019561021b366004610d88565b610556565b6101f0610575565b6101f0610236366004610e16565b610604565b6101f0610659565b61016d610686565b610253610695565b60405161015c9190610e77565b61016d6106a9565b61014f610276366004610e16565b6106b8565b61014f610289366004610e16565b610733565b6101f061029c366004610e16565b610747565b6101956102af366004610da9565b61080d565b6101f06102c2366004610d88565b610838565b60055460ff1690565b6060600380546102df906112f9565b80601f016020809104026020016040519081016040528092919081815260200182805461030b906112f9565b80156103585780601f1061032d57610100808354040283529160200191610358565b820191906000526020600020905b81548152906001019060200180831161033b57829003601f168201915b5050505050905090565b600061037661036f6109c4565b84846109c8565b50600192915050565b60025490565b6000610392848484610a7c565b6001600160a01b0384166000908152600160205260408120816103b36109c4565b6001600160a01b03166001600160a01b03168152602001908152602001600020549050828110156103ff5760405162461bcd60e51b81526004016103f69061109f565b60405180910390fd5b61041a8561040b6109c4565b61041586856112e2565b6109c8565b506001949350505050565b600061042f610ba4565b905090565b60006103766104416109c4565b84846001600061044f6109c4565b6001600160a01b03908116825260208083019390935260409182016000908120918b168152925290205461041591906112ca565b60055460ff16156104a65760405162461bcd60e51b81526004016103f6906111f5565b6104b08282610bc8565b5050565b6104c56104bf6109c4565b82610c11565b50565b600680546104d5906112f9565b80601f0160208091040260200160405190810160405280929190818152602001828054610501906112f9565b801561054e5780601f106105235761010080835404028352916020019161054e565b820191906000526020600020905b81548152906001019060200180831161053157829003601f168201915b505050505081565b6001600160a01b0381166000908152602081905260409020545b919050565b61057d6109c4565b6001600160a01b031661058e610695565b6001600160a01b0316146105b45760405162461bcd60e51b81526004016103f69061105a565b60055460405160009161010090046001600160a01b0316907f8be0079c531659141344cd1fd0a4f28419497f9722a3daafe3b4186f6b6457e0908390a360058054610100600160a81b0319169055565b6000610612836102af6109c4565b9050818110156106345760405162461bcd60e51b81526004016103f6906110e7565b61064a836106406109c4565b61041585856112e2565b6106548383610c11565b505050565b60055460ff161561067c5760405162461bcd60e51b81526004016103f6906111f5565b610684610cf7565b565b6060600680546102df906112f9565b60055461010090046001600160a01b031690565b6060600480546102df906112f9565b600080600160006106c76109c4565b6001600160a01b03908116825260208083019390935260409182016000908120918816815292529020549050828110156107135760405162461bcd60e51b81526004016103f690611237565b61072961071e6109c4565b8561041586856112e2565b5060019392505050565b60006103766107406109c4565b8484610a7c565b61074f6109c4565b6001600160a01b0316610760610695565b6001600160a01b0316146107865760405162461bcd60e51b81526004016103f69061105a565b816001600160a01b031663a9059cbb61079d610695565b836040518363ffffffff1660e01b81526004016107bb929190610e8b565b602060405180830381600087803b1580156107d557600080fd5b505af11580156107e9573d6000803e3d6000fd5b505050506040513d601f19601f820116820180604052508101906106549190610e3f565b6001600160a01b03918216600090815260016020908152604080832093909416825291909152205490565b6108406109c4565b6001600160a01b0316610851610695565b6001600160a01b0316146108775760405162461bcd60e51b81526004016103f69061105a565b6001600160a01b03811661089d5760405162461bcd60e51b81526004016103f69061100f565b6005546040516001600160a01b0380841692610100900416907f8be0079c531659141344cd1fd0a4f28419497f9722a3daafe3b4186f6b6457e090600090a3600580546001600160a01b0390921661010002610100600160a81b0319909216919091179055565b6001600160a01b03821661092a5760405162461bcd60e51b81526004016103f69061127c565b61093660008383610654565b806002600082825461094891906112ca565b90915550506001600160a01b038216600090815260208190526040812080548392906109759084906112ca565b90915550506040516001600160a01b038316906000907fddf252ad1be2c89b69c2b068fc378daa952ba7f163c4a11628f55a4df523b3ef906109b89085906112b3565b60405180910390a35050565b3390565b6001600160a01b0383166109ee5760405162461bcd60e51b81526004016103f6906111b1565b6001600160a01b038216610a145760405162461bcd60e51b81526004016103f690610f87565b6001600160a01b0380841660008181526001602090815260408083209487168084529490915290819020849055517f8c5be1e5ebec7d5bd14f71427d1e84f3dd0314c0f7b2291e5b200ac8c7c3b92590610a6f9085906112b3565b60405180910390a3505050565b6001600160a01b038316610aa25760405162461bcd60e51b81526004016103f69061116c565b6001600160a01b038216610ac85760405162461bcd60e51b81526004016103f690610f02565b610ad3838383610654565b6001600160a01b03831660009081526020819052604090205481811015610b0c5760405162461bcd60e51b81526004016103f690610fc9565b610b1682826112e2565b6001600160a01b038086166000908152602081905260408082209390935590851681529081208054849290610b4c9084906112ca565b92505081905550826001600160a01b0316846001600160a01b03167fddf252ad1be2c89b69c2b068fc378daa952ba7f163c4a11628f55a4df523b3ef84604051610b9691906112b3565b60405180910390a350505050565b7f000000000000000000000000000000000000000000000000000000000000000090565b610bd06109c4565b6001600160a01b0316610be1610695565b6001600160a01b031614610c075760405162461bcd60e51b81526004016103f69061105a565b6104b08282610904565b6001600160a01b038216610c375760405162461bcd60e51b81526004016103f69061112b565b610c4382600083610654565b6001600160a01b03821660009081526020819052604090205481811015610c7c5760405162461bcd60e51b81526004016103f690610f45565b610c8682826112e2565b6001600160a01b03841660009081526020819052604081209190915560028054849290610cb49084906112e2565b90915550506040516000906001600160a01b038516907fddf252ad1be2c89b69c2b068fc378daa952ba7f163c4a11628f55a4df523b3ef90610a6f9086906112b3565b610cff6109c4565b6001600160a01b0316610d10610695565b6001600160a01b031614610d365760405162461bcd60e51b81526004016103f69061105a565b6106846005805460ff191660011790556040517fae5184fba832cb2b1f702aca6117b8d265eaf03ad33eb133f19dde0f5920fa0890600090a1565b80356001600160a01b038116811461057057600080fd5b600060208284031215610d99578081fd5b610da282610d71565b9392505050565b60008060408385031215610dbb578081fd5b610dc483610d71565b9150610dd260208401610d71565b90509250929050565b600080600060608486031215610def578081fd5b610df884610d71565b9250610e0660208501610d71565b9150604084013590509250925092565b60008060408385031215610e28578182fd5b610e3183610d71565b946020939093013593505050565b600060208284031215610e50578081fd5b81518015158114610da2578182fd5b600060208284031215610e70578081fd5b5035919050565b6001600160a01b0391909116815260200190565b6001600160a01b03929092168252602082015260400190565b901515815260200190565b6000602080835283518082850152825b81811015610edb57858101830151858201604001528201610ebf565b81811115610eec5783604083870101525b50601f01601f1916929092016040019392505050565b60208082526023908201527f45524332303a207472616e7366657220746f20746865207a65726f206164647260408201526265737360e81b606082015260800190565b60208082526022908201527f45524332303a206275726e20616d6f756e7420657863656564732062616c616e604082015261636560f01b606082015260800190565b60208082526022908201527f45524332303a20617070726f766520746f20746865207a65726f206164647265604082015261737360f01b606082015260800190565b60208082526026908201527f45524332303a207472616e7366657220616d6f756e7420657863656564732062604082015265616c616e636560d01b606082015260800190565b6020808252602b908201527f45524332304f776e61626c653a206e6577206f776e657220697320746865207a60408201526a65726f206164647265737360a81b606082015260800190565b60208082526025908201527f45524332304f776e61626c653a2063616c6c6572206973206e6f74207468652060408201526437bbb732b960d91b606082015260800190565b60208082526028908201527f45524332303a207472616e7366657220616d6f756e74206578636565647320616040820152676c6c6f77616e636560c01b606082015260800190565b60208082526024908201527f45524332303a206275726e20616d6f756e74206578636565647320616c6c6f77604082015263616e636560e01b606082015260800190565b60208082526021908201527f45524332303a206275726e2066726f6d20746865207a65726f206164647265736040820152607360f81b606082015260800190565b60208082526025908201527f45524332303a207472616e736665722066726f6d20746865207a65726f206164604082015264647265737360d81b606082015260800190565b60208082526024908201527f45524332303a20617070726f76652066726f6d20746865207a65726f206164646040820152637265737360e01b606082015260800190565b60208082526022908201527f45524332304d696e7461626c653a206d696e74696e672069732066696e697368604082015261195960f21b606082015260800190565b60208082526025908201527f45524332303a2064656372656173656420616c6c6f77616e63652062656c6f77604082015264207a65726f60d81b606082015260800190565b6020808252601f908201527f45524332303a206d696e7420746f20746865207a65726f206164647265737300604082015260600190565b90815260200190565b60ff91909116815260200190565b600082198211156112dd576112dd611334565b500190565b6000828210156112f4576112f4611334565b500390565b60028104600182168061130d57607f821691505b6020821081141561132e57634e487b7160e01b600052602260045260246000fd5b50919050565b634e487b7160e01b600052601160045260246000fdfea2646970667358221220e9ec3dd79ca14101bf209ddd6856932b0f9fd68de92061e504447d75fa93287064736f6c63430008000033",
  "linkReferences": {},
  "deployedLinkReferences": {}
}