{
  "_format": "hh-sol-artifact-1",
  "contractName": "TokenHelper",
  "sourceName": "contracts/helpers/TokenHelper.sol",
  "abi": [
    {
      "inputs": [
        {
          "internalType": "string",
          "name": "_tokenName",
          "type": "string"
        }
      ],
      "stateMutability": "nonpayable",
      "type": "constructor"
    },
    {
      "inputs": [],
      "name": "getTokenName",
      "outputs": [
        {
          "internalType": "string",
          "name": "",
          "type": "string"
        }
      ],
      "stateMutability": "view",
      "type": "function"
    },
    {
      "inputs": [],
      "name": "tokenName",
      "outputs": [
        {
          "internalType": "string",
          "name": "",
          "type": "string"
        }
      ],
      "stateMutability": "view",
      "type": "function"
    }
  ],
  "bytecode": "0x608060405234801561001057600080fd5b5060405161044938038061044983398101604081905261002f916100e2565b8051610042906000906020840190610049565b50506101f5565b828054610055906101a4565b90600052602060002090601f01602090048101928261007757600085556100bd565b82601f1061009057805160ff19168380011785556100bd565b828001600101855582156100bd579182015b828111156100bd5782518255916020019190600101906100a2565b506100c99291506100cd565b5090565b5b808211156100c957600081556001016100ce565b600060208083850312156100f4578182fd5b82516001600160401b038082111561010a578384fd5b818501915085601f83011261011d578384fd5b81518181111561012f5761012f6101df565b604051601f8201601f1916810185018381118282101715610152576101526101df565b6040528181528382018501881015610168578586fd5b8592505b81831015610189578383018501518184018601529184019161016c565b8183111561019957858583830101525b979650505050505050565b6002810460018216806101b857607f821691505b602082108114156101d957634e487b7160e01b600052602260045260246000fd5b50919050565b634e487b7160e01b600052604160045260246000fd5b610245806102046000396000f3fe608060405234801561001057600080fd5b50600436106100365760003560e01c80636c02a9311461003b578063862b092b14610059575b600080fd5b610043610061565b6040516100509190610181565b60405180910390f35b6100436100ef565b6000805461006e906101d4565b80601f016020809104026020016040519081016040528092919081815260200182805461009a906101d4565b80156100e75780601f106100bc576101008083540402835291602001916100e7565b820191906000526020600020905b8154815290600101906020018083116100ca57829003601f168201915b505050505081565b6060600080546100fe906101d4565b80601f016020809104026020016040519081016040528092919081815260200182805461012a906101d4565b80156101775780601f1061014c57610100808354040283529160200191610177565b820191906000526020600020905b81548152906001019060200180831161015a57829003601f168201915b5050505050905090565b6000602080835283518082850152825b818110156101ad57858101830151858201604001528201610191565b818111156101be5783604083870101525b50601f01601f1916929092016040019392505050565b6002810460018216806101e857607f821691505b6020821081141561020957634e487b7160e01b600052602260045260246000fd5b5091905056fea2646970667358221220e489764e6b65d7d1975062984d2fa190d7fb0996270781adc5b74ecf94ccbee264736f6c63430008000033",
  "linkReferences": {},
  "deployedLinkReferences": {}
}